{
  "address": "0x086f6622D7adcFc95b1C6BbA2032291A0d97c69D",
  "abi": [
    {
      "inputs": [
        {
          "internalType": "address",
          "name": "priceFeedAddress",
          "type": "address"
        }
      ],
      "stateMutability": "nonpayable",
      "type": "constructor"
    },
    {
      "inputs": [],
      "name": "FundMe__NotOwner",
      "type": "error"
    },
    {
      "stateMutability": "payable",
      "type": "fallback"
    },
    {
      "inputs": [],
      "name": "MINIMIM_USD",
      "outputs": [
        {
          "internalType": "uint256",
          "name": "",
          "type": "uint256"
        }
      ],
      "stateMutability": "view",
      "type": "function"
    },
    {
      "inputs": [],
      "name": "cheaperWithdraw",
      "outputs": [],
      "stateMutability": "payable",
      "type": "function"
    },
    {
      "inputs": [],
      "name": "fund",
      "outputs": [],
      "stateMutability": "payable",
      "type": "function"
    },
    {
      "inputs": [
        {
          "internalType": "address",
          "name": "funder",
          "type": "address"
        }
      ],
      "name": "getAddressToAmountFunded",
      "outputs": [
        {
          "internalType": "uint256",
          "name": "",
          "type": "uint256"
        }
      ],
      "stateMutability": "view",
      "type": "function"
    },
    {
      "inputs": [
        {
          "internalType": "uint256",
          "name": "i",
          "type": "uint256"
        }
      ],
      "name": "getFunder",
      "outputs": [
        {
          "internalType": "address",
          "name": "",
          "type": "address"
        }
      ],
      "stateMutability": "view",
      "type": "function"
    },
    {
      "inputs": [],
      "name": "getOwner",
      "outputs": [
        {
          "internalType": "address",
          "name": "",
          "type": "address"
        }
      ],
      "stateMutability": "view",
      "type": "function"
    },
    {
      "inputs": [],
      "name": "getPriceFeed",
      "outputs": [
        {
          "internalType": "contract AggregatorV3Interface",
          "name": "",
          "type": "address"
        }
      ],
      "stateMutability": "view",
      "type": "function"
    },
    {
      "inputs": [],
      "name": "withdraw",
      "outputs": [],
      "stateMutability": "payable",
      "type": "function"
    },
    {
      "stateMutability": "payable",
      "type": "receive"
    }
  ],
  "transactionHash": "0x13ca78d8cad6aaf577904e2b74d1b1071e9b59c9c729f2bb39a40e416d2a8b45",
  "args": [
    "0x8A753747A1Fa494EC906cE90E9f37563A8AF630e"
  ],
  "numDeployments": 2,
  "solcInputHash": "72789590fd98315031cd854c23e81286",
  "bytecode": "0x60a06040523480156200001157600080fd5b506040516200131338038062001313833981810160405281019062000037919062000120565b3373ffffffffffffffffffffffffffffffffffffffff1660808173ffffffffffffffffffffffffffffffffffffffff1660601b8152505080600260006101000a81548173ffffffffffffffffffffffffffffffffffffffff021916908373ffffffffffffffffffffffffffffffffffffffff1602179055505062000152565b600080fd5b600073ffffffffffffffffffffffffffffffffffffffff82169050919050565b6000620000e882620000bb565b9050919050565b620000fa81620000db565b81146200010657600080fd5b50565b6000815190506200011a81620000ef565b92915050565b600060208284031215620001395762000138620000b6565b5b6000620001498482850162000109565b91505092915050565b60805160601c61118d620001866000396000818161033701528181610579015281816105c901526107bf015261118d6000f3fe60806040526004361061007f5760003560e01c8063b60d42881161004e578063b60d428814610135578063be2693f01461013f578063d7b4750c14610149578063e21e09dd146101865761008e565b80630343fb25146100985780633ccfd60b146100d5578063893d20e8146100df5780639e87a5cd1461010a5761008e565b3661008e5761008c6101b1565b005b6100966101b1565b005b3480156100a457600080fd5b506100bf60048036038101906100ba9190610ac5565b6102ec565b6040516100cc9190610b0b565b60405180910390f35b6100dd610335565b005b3480156100eb57600080fd5b506100f4610575565b6040516101019190610b35565b60405180910390f35b34801561011657600080fd5b5061011f61059d565b60405161012c9190610baf565b60405180910390f35b61013d6101b1565b005b6101476105c7565b005b34801561015557600080fd5b50610170600480360381019061016b9190610bf6565b61088b565b60405161017d9190610b35565b60405180910390f35b34801561019257600080fd5b5061019b6108d2565b6040516101a89190610b0b565b60405180910390f35b6802b5e3af16b18800006101f0600260009054906101000a900473ffffffffffffffffffffffffffffffffffffffff16346108df90919063ffffffff16565b1015610231576040517f08c379a000000000000000000000000000000000000000000000000000000000815260040161022890610c80565b60405180910390fd5b6000339080600181540180825580915050600190039060005260206000200160009091909190916101000a81548173ffffffffffffffffffffffffffffffffffffffff021916908373ffffffffffffffffffffffffffffffffffffffff16021790555034600160003373ffffffffffffffffffffffffffffffffffffffff1673ffffffffffffffffffffffffffffffffffffffff16815260200190815260200160002060008282546102e39190610ccf565b92505081905550565b6000600160008373ffffffffffffffffffffffffffffffffffffffff1673ffffffffffffffffffffffffffffffffffffffff168152602001908152602001600020549050919050565b7f000000000000000000000000000000000000000000000000000000000000000073ffffffffffffffffffffffffffffffffffffffff163373ffffffffffffffffffffffffffffffffffffffff16146103ba576040517f579610db00000000000000000000000000000000000000000000000000000000815260040160405180910390fd5b60005b6000805490508110156104655760008082815481106103df576103de610d25565b5b9060005260206000200160009054906101000a900473ffffffffffffffffffffffffffffffffffffffff1690506000600160008373ffffffffffffffffffffffffffffffffffffffff1673ffffffffffffffffffffffffffffffffffffffff1681526020019081526020016000208190555050808061045d90610d54565b9150506103bd565b50600067ffffffffffffffff81111561048157610480610d9d565b5b6040519080825280602002602001820160405280156104af5781602001602082028036833780820191505090505b50600090805190602001906104c59291906109bb565b5060003373ffffffffffffffffffffffffffffffffffffffff16476040516104ec90610dfd565b60006040518083038185875af1925050503d8060008114610529576040519150601f19603f3d011682016040523d82523d6000602084013e61052e565b606091505b5050905080610572576040517f08c379a000000000000000000000000000000000000000000000000000000000815260040161056990610e5e565b60405180910390fd5b50565b60007f0000000000000000000000000000000000000000000000000000000000000000905090565b6000600260009054906101000a900473ffffffffffffffffffffffffffffffffffffffff16905090565b7f000000000000000000000000000000000000000000000000000000000000000073ffffffffffffffffffffffffffffffffffffffff163373ffffffffffffffffffffffffffffffffffffffff161461064c576040517f579610db00000000000000000000000000000000000000000000000000000000815260040160405180910390fd5b6000808054806020026020016040519081016040528092919081815260200182805480156106cf57602002820191906000526020600020905b8160009054906101000a900473ffffffffffffffffffffffffffffffffffffffff1673ffffffffffffffffffffffffffffffffffffffff1681526020019060010190808311610685575b5050505050905060005b815181101561075a5760008282815181106106f7576106f6610d25565b5b602002602001015190506000600160008373ffffffffffffffffffffffffffffffffffffffff1673ffffffffffffffffffffffffffffffffffffffff1681526020019081526020016000208190555050808061075290610d54565b9150506106d9565b50600067ffffffffffffffff81111561077657610775610d9d565b5b6040519080825280602002602001820160405280156107a45781602001602082028036833780820191505090505b50600090805190602001906107ba9291906109bb565b5060007f000000000000000000000000000000000000000000000000000000000000000073ffffffffffffffffffffffffffffffffffffffff164760405161080190610dfd565b60006040518083038185875af1925050503d806000811461083e576040519150601f19603f3d011682016040523d82523d6000602084013e610843565b606091505b5050905080610887576040517f08c379a000000000000000000000000000000000000000000000000000000000815260040161087e90610e5e565b60405180910390fd5b5050565b60008082815481106108a05761089f610d25565b5b9060005260206000200160009054906101000a900473ffffffffffffffffffffffffffffffffffffffff169050919050565b6802b5e3af16b188000081565b6000806108eb8361091b565b90506000670de0b6b3a764000085836109049190610e7e565b61090e9190610f07565b9050809250505092915050565b6000808273ffffffffffffffffffffffffffffffffffffffff1663feaf968c6040518163ffffffff1660e01b815260040160a06040518083038186803b15801561096457600080fd5b505afa158015610978573d6000803e3d6000fd5b505050506040513d601f19601f8201168201806040525081019061099c9190610fc5565b5050509150506402540be400816109b39190611040565b915050919050565b828054828255906000526020600020908101928215610a34579160200282015b82811115610a335782518260006101000a81548173ffffffffffffffffffffffffffffffffffffffff021916908373ffffffffffffffffffffffffffffffffffffffff160217905550916020019190600101906109db565b5b509050610a419190610a45565b5090565b5b80821115610a5e576000816000905550600101610a46565b5090565b600080fd5b600073ffffffffffffffffffffffffffffffffffffffff82169050919050565b6000610a9282610a67565b9050919050565b610aa281610a87565b8114610aad57600080fd5b50565b600081359050610abf81610a99565b92915050565b600060208284031215610adb57610ada610a62565b5b6000610ae984828501610ab0565b91505092915050565b6000819050919050565b610b0581610af2565b82525050565b6000602082019050610b206000830184610afc565b92915050565b610b2f81610a87565b82525050565b6000602082019050610b4a6000830184610b26565b92915050565b6000819050919050565b6000610b75610b70610b6b84610a67565b610b50565b610a67565b9050919050565b6000610b8782610b5a565b9050919050565b6000610b9982610b7c565b9050919050565b610ba981610b8e565b82525050565b6000602082019050610bc46000830184610ba0565b92915050565b610bd381610af2565b8114610bde57600080fd5b50565b600081359050610bf081610bca565b92915050565b600060208284031215610c0c57610c0b610a62565b5b6000610c1a84828501610be1565b91505092915050565b600082825260208201905092915050565b7f4261640000000000000000000000000000000000000000000000000000000000600082015250565b6000610c6a600383610c23565b9150610c7582610c34565b602082019050919050565b60006020820190508181036000830152610c9981610c5d565b9050919050565b7f4e487b7100000000000000000000000000000000000000000000000000000000600052601160045260246000fd5b6000610cda82610af2565b9150610ce583610af2565b9250827fffffffffffffffffffffffffffffffffffffffffffffffffffffffffffffffff03821115610d1a57610d19610ca0565b5b828201905092915050565b7f4e487b7100000000000000000000000000000000000000000000000000000000600052603260045260246000fd5b6000610d5f82610af2565b91507fffffffffffffffffffffffffffffffffffffffffffffffffffffffffffffffff821415610d9257610d91610ca0565b5b600182019050919050565b7f4e487b7100000000000000000000000000000000000000000000000000000000600052604160045260246000fd5b600081905092915050565b50565b6000610de7600083610dcc565b9150610df282610dd7565b600082019050919050565b6000610e0882610dda565b9150819050919050565b7f63616c6c206661696c6564000000000000000000000000000000000000000000600082015250565b6000610e48600b83610c23565b9150610e5382610e12565b602082019050919050565b60006020820190508181036000830152610e7781610e3b565b9050919050565b6000610e8982610af2565b9150610e9483610af2565b9250817fffffffffffffffffffffffffffffffffffffffffffffffffffffffffffffffff0483118215151615610ecd57610ecc610ca0565b5b828202905092915050565b7f4e487b7100000000000000000000000000000000000000000000000000000000600052601260045260246000fd5b6000610f1282610af2565b9150610f1d83610af2565b925082610f2d57610f2c610ed8565b5b828204905092915050565b600069ffffffffffffffffffff82169050919050565b610f5781610f38565b8114610f6257600080fd5b50565b600081519050610f7481610f4e565b92915050565b6000819050919050565b610f8d81610f7a565b8114610f9857600080fd5b50565b600081519050610faa81610f84565b92915050565b600081519050610fbf81610bca565b92915050565b600080600080600060a08688031215610fe157610fe0610a62565b5b6000610fef88828901610f65565b955050602061100088828901610f9b565b945050604061101188828901610fb0565b935050606061102288828901610fb0565b925050608061103388828901610f65565b9150509295509295909350565b600061104b82610f7a565b915061105683610f7a565b9250827f7fffffffffffffffffffffffffffffffffffffffffffffffffffffffffffffff048211600084136000841316161561109557611094610ca0565b5b817f800000000000000000000000000000000000000000000000000000000000000005831260008412600084131616156110d2576110d1610ca0565b5b827f8000000000000000000000000000000000000000000000000000000000000000058212600084136000841216161561110f5761110e610ca0565b5b827f7fffffffffffffffffffffffffffffffffffffffffffffffffffffffffffffff058212600084126000841216161561114c5761114b610ca0565b5b82820290509291505056fea26469706673582212200c67ae9b57228f51dc5fc7fe4582a899983971275a2e5b763f41a5c5e25e6f3864736f6c63430008080033",
  "devdoc": {
    "author": "Carlos Rocamora",
    "details": "this implements price feeds as our library ",
    "kind": "dev",
    "methods": {
      "withdraw()": {
        "details": "this implements price feeds as our library"
      }
    },
    "title": "Smart contract for funding",
    "version": 1
  },
  "userdoc": {
    "kind": "user",
    "methods": {
      "withdraw()": {
        "notice": "This contract is a demo"
      }
    },
    "notice": "This contract is a demo",
    "version": 1
  },
  "storageLayout": {
    "storage": [
      {
        "astId": 64,
        "contract": "contracts/FundMe.sol:FundMe",
        "label": "s_funders",
        "offset": 0,
        "slot": "0",
        "type": "t_array(t_address)dyn_storage"
      },
      {
        "astId": 68,
        "contract": "contracts/FundMe.sol:FundMe",
        "label": "s_addressToAmountFunded",
        "offset": 0,
        "slot": "1",
        "type": "t_mapping(t_address,t_uint256)"
      },
      {
        "astId": 73,
        "contract": "contracts/FundMe.sol:FundMe",
        "label": "s_priceFeed",
        "offset": 0,
        "slot": "2",
        "type": "t_contract(AggregatorV3Interface)45"
      }
    ],
    "types": {
      "t_address": {
        "encoding": "inplace",
        "label": "address",
        "numberOfBytes": "20"
      },
      "t_array(t_address)dyn_storage": {
        "base": "t_address",
        "encoding": "dynamic_array",
        "label": "address[]",
        "numberOfBytes": "32"
      },
      "t_contract(AggregatorV3Interface)45": {
        "encoding": "inplace",
        "label": "contract AggregatorV3Interface",
        "numberOfBytes": "20"
      },
      "t_mapping(t_address,t_uint256)": {
        "encoding": "mapping",
        "key": "t_address",
        "label": "mapping(address => uint256)",
        "numberOfBytes": "32",
        "value": "t_uint256"
      },
      "t_uint256": {
        "encoding": "inplace",
        "label": "uint256",
        "numberOfBytes": "32"
      }
    }
  }
}