{
  "_format": "hh-sol-artifact-1",
  "contractName": "DynamicSvgNft",
  "sourceName": "contracts/DynamicSvgNft.sol",
  "abi": [
    {
      "inputs": [
        {
          "internalType": "address",
          "name": "priceFeedAddress",
          "type": "address"
        },
        {
          "internalType": "string",
          "name": "lowSvg",
          "type": "string"
        },
        {
          "internalType": "string",
          "name": "highSvg",
          "type": "string"
        }
      ],
      "stateMutability": "nonpayable",
      "type": "constructor"
    },
    {
      "anonymous": false,
      "inputs": [
        {
          "indexed": true,
          "internalType": "address",
          "name": "owner",
          "type": "address"
        },
        {
          "indexed": true,
          "internalType": "address",
          "name": "approved",
          "type": "address"
        },
        {
          "indexed": true,
          "internalType": "uint256",
          "name": "tokenId",
          "type": "uint256"
        }
      ],
      "name": "Approval",
      "type": "event"
    },
    {
      "anonymous": false,
      "inputs": [
        {
          "indexed": true,
          "internalType": "address",
          "name": "owner",
          "type": "address"
        },
        {
          "indexed": true,
          "internalType": "address",
          "name": "operator",
          "type": "address"
        },
        {
          "indexed": false,
          "internalType": "bool",
          "name": "approved",
          "type": "bool"
        }
      ],
      "name": "ApprovalForAll",
      "type": "event"
    },
    {
      "anonymous": false,
      "inputs": [
        {
          "indexed": true,
          "internalType": "uint256",
          "name": "tokenId",
          "type": "uint256"
        },
        {
          "indexed": false,
          "internalType": "int256",
          "name": "highValue",
          "type": "int256"
        }
      ],
      "name": "CreatedNFT",
      "type": "event"
    },
    {
      "anonymous": false,
      "inputs": [
        {
          "indexed": true,
          "internalType": "address",
          "name": "previousOwner",
          "type": "address"
        },
        {
          "indexed": true,
          "internalType": "address",
          "name": "newOwner",
          "type": "address"
        }
      ],
      "name": "OwnershipTransferred",
      "type": "event"
    },
    {
      "anonymous": false,
      "inputs": [
        {
          "indexed": true,
          "internalType": "address",
          "name": "from",
          "type": "address"
        },
        {
          "indexed": true,
          "internalType": "address",
          "name": "to",
          "type": "address"
        },
        {
          "indexed": true,
          "internalType": "uint256",
          "name": "tokenId",
          "type": "uint256"
        }
      ],
      "name": "Transfer",
      "type": "event"
    },
    {
      "inputs": [
        {
          "internalType": "address",
          "name": "to",
          "type": "address"
        },
        {
          "internalType": "uint256",
          "name": "tokenId",
          "type": "uint256"
        }
      ],
      "name": "approve",
      "outputs": [],
      "stateMutability": "nonpayable",
      "type": "function"
    },
    {
      "inputs": [
        {
          "internalType": "address",
          "name": "owner",
          "type": "address"
        }
      ],
      "name": "balanceOf",
      "outputs": [
        {
          "internalType": "uint256",
          "name": "",
          "type": "uint256"
        }
      ],
      "stateMutability": "view",
      "type": "function"
    },
    {
      "inputs": [
        {
          "internalType": "uint256",
          "name": "tokenId",
          "type": "uint256"
        }
      ],
      "name": "getApproved",
      "outputs": [
        {
          "internalType": "address",
          "name": "",
          "type": "address"
        }
      ],
      "stateMutability": "view",
      "type": "function"
    },
    {
      "inputs": [],
      "name": "getHighSVG",
      "outputs": [
        {
          "internalType": "string",
          "name": "",
          "type": "string"
        }
      ],
      "stateMutability": "view",
      "type": "function"
    },
    {
      "inputs": [],
      "name": "getLowSVG",
      "outputs": [
        {
          "internalType": "string",
          "name": "",
          "type": "string"
        }
      ],
      "stateMutability": "view",
      "type": "function"
    },
    {
      "inputs": [],
      "name": "getPriceFeed",
      "outputs": [
        {
          "internalType": "contract AggregatorV3Interface",
          "name": "",
          "type": "address"
        }
      ],
      "stateMutability": "view",
      "type": "function"
    },
    {
      "inputs": [],
      "name": "getTokenCounter",
      "outputs": [
        {
          "internalType": "uint256",
          "name": "",
          "type": "uint256"
        }
      ],
      "stateMutability": "view",
      "type": "function"
    },
    {
      "inputs": [
        {
          "internalType": "address",
          "name": "owner",
          "type": "address"
        },
        {
          "internalType": "address",
          "name": "operator",
          "type": "address"
        }
      ],
      "name": "isApprovedForAll",
      "outputs": [
        {
          "internalType": "bool",
          "name": "",
          "type": "bool"
        }
      ],
      "stateMutability": "view",
      "type": "function"
    },
    {
      "inputs": [
        {
          "internalType": "int256",
          "name": "highValue",
          "type": "int256"
        }
      ],
      "name": "mintNft",
      "outputs": [],
      "stateMutability": "nonpayable",
      "type": "function"
    },
    {
      "inputs": [],
      "name": "name",
      "outputs": [
        {
          "internalType": "string",
          "name": "",
          "type": "string"
        }
      ],
      "stateMutability": "view",
      "type": "function"
    },
    {
      "inputs": [],
      "name": "owner",
      "outputs": [
        {
          "internalType": "address",
          "name": "",
          "type": "address"
        }
      ],
      "stateMutability": "view",
      "type": "function"
    },
    {
      "inputs": [
        {
          "internalType": "uint256",
          "name": "tokenId",
          "type": "uint256"
        }
      ],
      "name": "ownerOf",
      "outputs": [
        {
          "internalType": "address",
          "name": "",
          "type": "address"
        }
      ],
      "stateMutability": "view",
      "type": "function"
    },
    {
      "inputs": [],
      "name": "renounceOwnership",
      "outputs": [],
      "stateMutability": "nonpayable",
      "type": "function"
    },
    {
      "inputs": [
        {
          "internalType": "address",
          "name": "from",
          "type": "address"
        },
        {
          "internalType": "address",
          "name": "to",
          "type": "address"
        },
        {
          "internalType": "uint256",
          "name": "tokenId",
          "type": "uint256"
        }
      ],
      "name": "safeTransferFrom",
      "outputs": [],
      "stateMutability": "nonpayable",
      "type": "function"
    },
    {
      "inputs": [
        {
          "internalType": "address",
          "name": "from",
          "type": "address"
        },
        {
          "internalType": "address",
          "name": "to",
          "type": "address"
        },
        {
          "internalType": "uint256",
          "name": "tokenId",
          "type": "uint256"
        },
        {
          "internalType": "bytes",
          "name": "data",
          "type": "bytes"
        }
      ],
      "name": "safeTransferFrom",
      "outputs": [],
      "stateMutability": "nonpayable",
      "type": "function"
    },
    {
      "inputs": [
        {
          "internalType": "address",
          "name": "operator",
          "type": "address"
        },
        {
          "internalType": "bool",
          "name": "approved",
          "type": "bool"
        }
      ],
      "name": "setApprovalForAll",
      "outputs": [],
      "stateMutability": "nonpayable",
      "type": "function"
    },
    {
      "inputs": [
        {
          "internalType": "bytes4",
          "name": "interfaceId",
          "type": "bytes4"
        }
      ],
      "name": "supportsInterface",
      "outputs": [
        {
          "internalType": "bool",
          "name": "",
          "type": "bool"
        }
      ],
      "stateMutability": "view",
      "type": "function"
    },
    {
      "inputs": [
        {
          "internalType": "string",
          "name": "svg",
          "type": "string"
        }
      ],
      "name": "svgToImageURI",
      "outputs": [
        {
          "internalType": "string",
          "name": "",
          "type": "string"
        }
      ],
      "stateMutability": "pure",
      "type": "function"
    },
    {
      "inputs": [],
      "name": "symbol",
      "outputs": [
        {
          "internalType": "string",
          "name": "",
          "type": "string"
        }
      ],
      "stateMutability": "view",
      "type": "function"
    },
    {
      "inputs": [
        {
          "internalType": "uint256",
          "name": "tokenId",
          "type": "uint256"
        }
      ],
      "name": "tokenURI",
      "outputs": [
        {
          "internalType": "string",
          "name": "",
          "type": "string"
        }
      ],
      "stateMutability": "view",
      "type": "function"
    },
    {
      "inputs": [
        {
          "internalType": "address",
          "name": "from",
          "type": "address"
        },
        {
          "internalType": "address",
          "name": "to",
          "type": "address"
        },
        {
          "internalType": "uint256",
          "name": "tokenId",
          "type": "uint256"
        }
      ],
      "name": "transferFrom",
      "outputs": [],
      "stateMutability": "nonpayable",
      "type": "function"
    },
    {
      "inputs": [
        {
          "internalType": "address",
          "name": "newOwner",
          "type": "address"
        }
      ],
      "name": "transferOwnership",
      "outputs": [],
      "stateMutability": "nonpayable",
      "type": "function"
    }
  ],
  "bytecode": "0x60a06040523480156200001157600080fd5b5060405162003e1e38038062003e1e833981810160405281019062000037919062000743565b6040518060400160405280600f81526020017f44796e616d696320535647204e465400000000000000000000000000000000008152506040518060400160405280600381526020017f44534e00000000000000000000000000000000000000000000000000000000008152508160009080519060200190620000bb92919062000491565b508060019080519060200190620000d492919062000491565b505050620000f7620000eb6200019160201b60201c565b6200019960201b60201c565b60006007819055508273ffffffffffffffffffffffffffffffffffffffff1660808173ffffffffffffffffffffffffffffffffffffffff1660601b8152505062000147826200025f60201b60201c565b600890805190602001906200015e92919062000491565b5062000170816200025f60201b60201c565b600990805190602001906200018792919062000491565b5050505062000a2e565b600033905090565b6000600660009054906101000a900473ffffffffffffffffffffffffffffffffffffffff16905081600660006101000a81548173ffffffffffffffffffffffffffffffffffffffff021916908373ffffffffffffffffffffffffffffffffffffffff1602179055508173ffffffffffffffffffffffffffffffffffffffff168173ffffffffffffffffffffffffffffffffffffffff167f8be0079c531659141344cd1fd0a4f28419497f9722a3daafe3b4186f6b6457e060405160405180910390a35050565b606060006040518060400160405280601a81526020017f646174613a696d6167652f7376672b786d6c3b6261736536342c00000000000081525090506000620002d484604051602001620002b491906200082a565b6040516020818303038152906040526200030360201b6200103d1760201c565b90508181604051602001620002eb92919062000843565b60405160208183030381529060405292505050919050565b606060008251141562000328576040518060200160405280600081525090506200048c565b600060405180606001604052806040815260200162003dde60409139905060006003600285516200035a9190620008a4565b62000366919062000930565b600462000374919062000968565b90506000602082620003879190620008a4565b67ffffffffffffffff811115620003a357620003a2620005d5565b5b6040519080825280601f01601f191660200182016040528015620003d65781602001600182028036833780820191505090505b509050818152600183018586518101602084015b8183101562000447576003830192508251603f8160121c168501518253600182019150603f81600c1c168501518253600182019150603f8160061c168501518253600182019150603f8116850151825360018201915050620003ea565b600389510660018114620004645760028114620004755762000480565b613d3d60f01b600283035262000480565b603d60f81b60018303525b50505050508093505050505b919050565b8280546200049f90620009f8565b90600052602060002090601f016020900481019282620004c357600085556200050f565b82601f10620004de57805160ff19168380011785556200050f565b828001600101855582156200050f579182015b828111156200050e578251825591602001919060010190620004f1565b5b5090506200051e919062000522565b5090565b5b808211156200053d57600081600090555060010162000523565b5090565b6000604051905090565b600080fd5b600080fd5b600073ffffffffffffffffffffffffffffffffffffffff82169050919050565b6000620005828262000555565b9050919050565b620005948162000575565b8114620005a057600080fd5b50565b600081519050620005b48162000589565b92915050565b600080fd5b600080fd5b6000601f19601f8301169050919050565b7f4e487b7100000000000000000000000000000000000000000000000000000000600052604160045260246000fd5b6200060f82620005c4565b810181811067ffffffffffffffff82111715620006315762000630620005d5565b5b80604052505050565b60006200064662000541565b905062000654828262000604565b919050565b600067ffffffffffffffff821115620006775762000676620005d5565b5b6200068282620005c4565b9050602081019050919050565b60005b83811015620006af57808201518184015260208101905062000692565b83811115620006bf576000848401525b50505050565b6000620006dc620006d68462000659565b6200063a565b905082815260208101848484011115620006fb57620006fa620005bf565b5b620007088482856200068f565b509392505050565b600082601f830112620007285762000727620005ba565b5b81516200073a848260208601620006c5565b91505092915050565b6000806000606084860312156200075f576200075e6200054b565b5b60006200076f86828701620005a3565b935050602084015167ffffffffffffffff81111562000793576200079262000550565b5b620007a18682870162000710565b925050604084015167ffffffffffffffff811115620007c557620007c462000550565b5b620007d38682870162000710565b9150509250925092565b600081519050919050565b600081905092915050565b60006200080082620007dd565b6200080c8185620007e8565b93506200081e8185602086016200068f565b80840191505092915050565b6000620008388284620007f3565b915081905092915050565b6000620008518285620007f3565b91506200085f8284620007f3565b91508190509392505050565b6000819050919050565b7f4e487b7100000000000000000000000000000000000000000000000000000000600052601160045260246000fd5b6000620008b1826200086b565b9150620008be836200086b565b9250827fffffffffffffffffffffffffffffffffffffffffffffffffffffffffffffffff03821115620008f657620008f562000875565b5b828201905092915050565b7f4e487b7100000000000000000000000000000000000000000000000000000000600052601260045260246000fd5b60006200093d826200086b565b91506200094a836200086b565b9250826200095d576200095c62000901565b5b828204905092915050565b600062000975826200086b565b915062000982836200086b565b9250817fffffffffffffffffffffffffffffffffffffffffffffffffffffffffffffffff0483118215151615620009be57620009bd62000875565b5b828202905092915050565b7f4e487b7100000000000000000000000000000000000000000000000000000000600052602260045260246000fd5b6000600282049050600182168062000a1157607f821691505b6020821081141562000a285762000a27620009c9565b5b50919050565b60805160601c61338a62000a5460003960008181610b6e0152610c58015261338a6000f3fe608060405234801561001057600080fd5b50600436106101425760003560e01c8063715018a6116100b8578063a22cb4651161007c578063a22cb46514610365578063b88d4fde14610381578063c87b56dd1461039d578063e985e9c5146103cd578063ed28a122146103fd578063f2fde38b1461041b57610142565b8063715018a6146102e357806376f6056b146102ed5780638da5cb5b1461030b57806395d89b41146103295780639e87a5cd1461034757610142565b806323b872dd1161010a57806323b872dd146101fd57806330d871c61461021957806342842e0e146102495780636352211e146102655780636e02007d1461029557806370a08231146102b357610142565b806301ffc9a71461014757806306fdde0314610177578063081812fc14610195578063095ea7b3146101c55780631e930812146101e1575b600080fd5b610161600480360381019061015c9190611e61565b610437565b60405161016e9190611ea9565b60405180910390f35b61017f610519565b60405161018c9190611f5d565b60405180910390f35b6101af60048036038101906101aa9190611fb5565b6105ab565b6040516101bc9190612023565b60405180910390f35b6101df60048036038101906101da919061206a565b6105f1565b005b6101fb60048036038101906101f691906120e0565b610709565b005b6102176004803603810190610212919061210d565b610781565b005b610233600480360381019061022e9190612295565b6107e1565b6040516102409190611f5d565b60405180910390f35b610263600480360381019061025e919061210d565b610874565b005b61027f600480360381019061027a9190611fb5565b610894565b60405161028c9190612023565b60405180910390f35b61029d610946565b6040516102aa91906122ed565b60405180910390f35b6102cd60048036038101906102c89190612308565b610950565b6040516102da91906122ed565b60405180910390f35b6102eb610a08565b005b6102f5610a1c565b6040516103029190611f5d565b60405180910390f35b610313610aae565b6040516103209190612023565b60405180910390f35b610331610ad8565b60405161033e9190611f5d565b60405180910390f35b61034f610b6a565b60405161035c9190612394565b60405180910390f35b61037f600480360381019061037a91906123db565b610b92565b005b61039b600480360381019061039691906124bc565b610ba8565b005b6103b760048036038101906103b29190611fb5565b610c0a565b6040516103c49190611f5d565b60405180910390f35b6103e760048036038101906103e2919061253f565b610e93565b6040516103f49190611ea9565b60405180910390f35b610405610f27565b6040516104129190611f5d565b60405180910390f35b61043560048036038101906104309190612308565b610fb9565b005b60007f80ac58cd000000000000000000000000000000000000000000000000000000007bffffffffffffffffffffffffffffffffffffffffffffffffffffffff1916827bffffffffffffffffffffffffffffffffffffffffffffffffffffffff1916148061050257507f5b5e139f000000000000000000000000000000000000000000000000000000007bffffffffffffffffffffffffffffffffffffffffffffffffffffffff1916827bffffffffffffffffffffffffffffffffffffffffffffffffffffffff1916145b806105125750610511826111b6565b5b9050919050565b606060008054610528906125ae565b80601f0160208091040260200160405190810160405280929190818152602001828054610554906125ae565b80156105a15780601f10610576576101008083540402835291602001916105a1565b820191906000526020600020905b81548152906001019060200180831161058457829003601f168201915b5050505050905090565b60006105b682611220565b6004600083815260200190815260200160002060009054906101000a900473ffffffffffffffffffffffffffffffffffffffff169050919050565b60006105fc82610894565b90508073ffffffffffffffffffffffffffffffffffffffff168373ffffffffffffffffffffffffffffffffffffffff16141561066d576040517f08c379a000000000000000000000000000000000000000000000000000000000815260040161066490612652565b60405180910390fd5b8073ffffffffffffffffffffffffffffffffffffffff1661068c61126b565b73ffffffffffffffffffffffffffffffffffffffff1614806106bb57506106ba816106b561126b565b610e93565b5b6106fa576040517f08c379a00000000000000000000000000000000000000000000000000000000081526004016106f1906126e4565b60405180910390fd5b6107048383611273565b505050565b80600a60006007548152602001908152602001600020819055506007547f882d3b5a729a8bb95cf6c0083c99b42ecd9637123d4425bd7b768877fd8af8b0826040516107559190612713565b60405180910390a26107693360075461132c565b6001600754610778919061275d565b60078190555050565b61079261078c61126b565b8261134a565b6107d1576040517f08c379a00000000000000000000000000000000000000000000000000000000081526004016107c890612825565b60405180910390fd5b6107dc8383836113df565b505050565b606060006040518060400160405280601a81526020017f646174613a696d6167652f7376672b786d6c3b6261736536342c00000000000081525090506000610847846040516020016108339190612881565b60405160208183030381529060405261103d565b9050818160405160200161085c929190612898565b60405160208183030381529060405292505050919050565b61088f83838360405180602001604052806000815250610ba8565b505050565b6000806002600084815260200190815260200160002060009054906101000a900473ffffffffffffffffffffffffffffffffffffffff169050600073ffffffffffffffffffffffffffffffffffffffff168173ffffffffffffffffffffffffffffffffffffffff16141561093d576040517f08c379a000000000000000000000000000000000000000000000000000000000815260040161093490612908565b60405180910390fd5b80915050919050565b6000600754905090565b60008073ffffffffffffffffffffffffffffffffffffffff168273ffffffffffffffffffffffffffffffffffffffff1614156109c1576040517f08c379a00000000000000000000000000000000000000000000000000000000081526004016109b89061299a565b60405180910390fd5b600360008373ffffffffffffffffffffffffffffffffffffffff1673ffffffffffffffffffffffffffffffffffffffff168152602001908152602001600020549050919050565b610a10611646565b610a1a60006116c4565b565b606060098054610a2b906125ae565b80601f0160208091040260200160405190810160405280929190818152602001828054610a57906125ae565b8015610aa45780601f10610a7957610100808354040283529160200191610aa4565b820191906000526020600020905b815481529060010190602001808311610a8757829003601f168201915b5050505050905090565b6000600660009054906101000a900473ffffffffffffffffffffffffffffffffffffffff16905090565b606060018054610ae7906125ae565b80601f0160208091040260200160405190810160405280929190818152602001828054610b13906125ae565b8015610b605780601f10610b3557610100808354040283529160200191610b60565b820191906000526020600020905b815481529060010190602001808311610b4357829003601f168201915b5050505050905090565b60007f0000000000000000000000000000000000000000000000000000000000000000905090565b610ba4610b9d61126b565b838361178a565b5050565b610bb9610bb361126b565b8361134a565b610bf8576040517f08c379a0000000000000000000000000000000000000000000000000000000008152600401610bef90612825565b60405180910390fd5b610c04848484846118f7565b50505050565b6060610c1582611953565b610c54576040517f08c379a0000000000000000000000000000000000000000000000000000000008152600401610c4b90612a2c565b60405180910390fd5b60007f000000000000000000000000000000000000000000000000000000000000000073ffffffffffffffffffffffffffffffffffffffff1663feaf968c6040518163ffffffff1660e01b815260040160a06040518083038186803b158015610cbc57600080fd5b505afa158015610cd0573d6000803e3d6000fd5b505050506040513d601f19601f82011682018060405250810190610cf49190612ab8565b505050915050600060088054610d09906125ae565b80601f0160208091040260200160405190810160405280929190818152602001828054610d35906125ae565b8015610d825780601f10610d5757610100808354040283529160200191610d82565b820191906000526020600020905b815481529060010190602001808311610d6557829003601f168201915b50505050509050600a6000858152602001908152602001600020548212610e315760098054610db0906125ae565b80601f0160208091040260200160405190810160405280929190818152602001828054610ddc906125ae565b8015610e295780601f10610dfe57610100808354040283529160200191610e29565b820191906000526020600020905b815481529060010190602001808311610e0c57829003601f168201915b505050505090505b610e396119bf565b610e6a610e44610519565b83604051602001610e56929190612cfb565b60405160208183030381529060405261103d565b604051602001610e7b929190612898565b60405160208183030381529060405292505050919050565b6000600560008473ffffffffffffffffffffffffffffffffffffffff1673ffffffffffffffffffffffffffffffffffffffff16815260200190815260200160002060008373ffffffffffffffffffffffffffffffffffffffff1673ffffffffffffffffffffffffffffffffffffffff16815260200190815260200160002060009054906101000a900460ff16905092915050565b606060088054610f36906125ae565b80601f0160208091040260200160405190810160405280929190818152602001828054610f62906125ae565b8015610faf5780601f10610f8457610100808354040283529160200191610faf565b820191906000526020600020905b815481529060010190602001808311610f9257829003601f168201915b5050505050905090565b610fc1611646565b600073ffffffffffffffffffffffffffffffffffffffff168173ffffffffffffffffffffffffffffffffffffffff161415611031576040517f08c379a000000000000000000000000000000000000000000000000000000000815260040161102890612dbd565b60405180910390fd5b61103a816116c4565b50565b6060600082511415611060576040518060200160405280600081525090506111b1565b6000604051806060016040528060408152602001613315604091399050600060036002855161108f919061275d565b6110999190612e0c565b60046110a59190612e3d565b905060006020826110b6919061275d565b67ffffffffffffffff8111156110cf576110ce61216a565b5b6040519080825280601f01601f1916602001820160405280156111015781602001600182028036833780820191505090505b509050818152600183018586518101602084015b81831015611170576003830192508251603f8160121c168501518253600182019150603f81600c1c168501518253600182019150603f8160061c168501518253600182019150603f8116850151825360018201915050611115565b60038951066001811461118a576002811461119a576111a5565b613d3d60f01b60028303526111a5565b603d60f81b60018303525b50505050508093505050505b919050565b60007f01ffc9a7000000000000000000000000000000000000000000000000000000007bffffffffffffffffffffffffffffffffffffffffffffffffffffffff1916827bffffffffffffffffffffffffffffffffffffffffffffffffffffffff1916149050919050565b61122981611953565b611268576040517f08c379a000000000000000000000000000000000000000000000000000000000815260040161125f90612908565b60405180910390fd5b50565b600033905090565b816004600083815260200190815260200160002060006101000a81548173ffffffffffffffffffffffffffffffffffffffff021916908373ffffffffffffffffffffffffffffffffffffffff160217905550808273ffffffffffffffffffffffffffffffffffffffff166112e683610894565b73ffffffffffffffffffffffffffffffffffffffff167f8c5be1e5ebec7d5bd14f71427d1e84f3dd0314c0f7b2291e5b200ac8c7c3b92560405160405180910390a45050565b6113468282604051806020016040528060008152506119fc565b5050565b60008061135683610894565b90508073ffffffffffffffffffffffffffffffffffffffff168473ffffffffffffffffffffffffffffffffffffffff16148061139857506113978185610e93565b5b806113d657508373ffffffffffffffffffffffffffffffffffffffff166113be846105ab565b73ffffffffffffffffffffffffffffffffffffffff16145b91505092915050565b8273ffffffffffffffffffffffffffffffffffffffff166113ff82610894565b73ffffffffffffffffffffffffffffffffffffffff1614611455576040517f08c379a000000000000000000000000000000000000000000000000000000000815260040161144c90612f09565b60405180910390fd5b600073ffffffffffffffffffffffffffffffffffffffff168273ffffffffffffffffffffffffffffffffffffffff1614156114c5576040517f08c379a00000000000000000000000000000000000000000000000000000000081526004016114bc90612f9b565b60405180910390fd5b6114d0838383611a57565b6114db600082611273565b6001600360008573ffffffffffffffffffffffffffffffffffffffff1673ffffffffffffffffffffffffffffffffffffffff168152602001908152602001600020600082825461152b9190612fbb565b925050819055506001600360008473ffffffffffffffffffffffffffffffffffffffff1673ffffffffffffffffffffffffffffffffffffffff1681526020019081526020016000206000828254611582919061275d565b92505081905550816002600083815260200190815260200160002060006101000a81548173ffffffffffffffffffffffffffffffffffffffff021916908373ffffffffffffffffffffffffffffffffffffffff160217905550808273ffffffffffffffffffffffffffffffffffffffff168473ffffffffffffffffffffffffffffffffffffffff167fddf252ad1be2c89b69c2b068fc378daa952ba7f163c4a11628f55a4df523b3ef60405160405180910390a4611641838383611a5c565b505050565b61164e61126b565b73ffffffffffffffffffffffffffffffffffffffff1661166c610aae565b73ffffffffffffffffffffffffffffffffffffffff16146116c2576040517f08c379a00000000000000000000000000000000000000000000000000000000081526004016116b99061303b565b60405180910390fd5b565b6000600660009054906101000a900473ffffffffffffffffffffffffffffffffffffffff16905081600660006101000a81548173ffffffffffffffffffffffffffffffffffffffff021916908373ffffffffffffffffffffffffffffffffffffffff1602179055508173ffffffffffffffffffffffffffffffffffffffff168173ffffffffffffffffffffffffffffffffffffffff167f8be0079c531659141344cd1fd0a4f28419497f9722a3daafe3b4186f6b6457e060405160405180910390a35050565b8173ffffffffffffffffffffffffffffffffffffffff168373ffffffffffffffffffffffffffffffffffffffff1614156117f9576040517f08c379a00000000000000000000000000000000000000000000000000000000081526004016117f0906130a7565b60405180910390fd5b80600560008573ffffffffffffffffffffffffffffffffffffffff1673ffffffffffffffffffffffffffffffffffffffff16815260200190815260200160002060008473ffffffffffffffffffffffffffffffffffffffff1673ffffffffffffffffffffffffffffffffffffffff16815260200190815260200160002060006101000a81548160ff0219169083151502179055508173ffffffffffffffffffffffffffffffffffffffff168373ffffffffffffffffffffffffffffffffffffffff167f17307eab39ab6107e8899845ad3d59bd9653f200f220920489ca2b5937696c31836040516118ea9190611ea9565b60405180910390a3505050565b6119028484846113df565b61190e84848484611a61565b61194d576040517f08c379a000000000000000000000000000000000000000000000000000000000815260040161194490613139565b60405180910390fd5b50505050565b60008073ffffffffffffffffffffffffffffffffffffffff166002600084815260200190815260200160002060009054906101000a900473ffffffffffffffffffffffffffffffffffffffff1673ffffffffffffffffffffffffffffffffffffffff1614159050919050565b60606040518060400160405280601d81526020017f646174613a6170706c69636174696f6e2f6a736f6e3b6261736536342c000000815250905090565b611a068383611bf8565b611a136000848484611a61565b611a52576040517f08c379a0000000000000000000000000000000000000000000000000000000008152600401611a4990613139565b60405180910390fd5b505050565b505050565b505050565b6000611a828473ffffffffffffffffffffffffffffffffffffffff16611dd2565b15611beb578373ffffffffffffffffffffffffffffffffffffffff1663150b7a02611aab61126b565b8786866040518563ffffffff1660e01b8152600401611acd94939291906131ae565b602060405180830381600087803b158015611ae757600080fd5b505af1925050508015611b1857506040513d601f19601f82011682018060405250810190611b15919061320f565b60015b611b9b573d8060008114611b48576040519150601f19603f3d011682016040523d82523d6000602084013e611b4d565b606091505b50600081511415611b93576040517f08c379a0000000000000000000000000000000000000000000000000000000008152600401611b8a90613139565b60405180910390fd5b805181602001fd5b63150b7a0260e01b7bffffffffffffffffffffffffffffffffffffffffffffffffffffffff1916817bffffffffffffffffffffffffffffffffffffffffffffffffffffffff191614915050611bf0565b600190505b949350505050565b600073ffffffffffffffffffffffffffffffffffffffff168273ffffffffffffffffffffffffffffffffffffffff161415611c68576040517f08c379a0000000000000000000000000000000000000000000000000000000008152600401611c5f90613288565b60405180910390fd5b611c7181611953565b15611cb1576040517f08c379a0000000000000000000000000000000000000000000000000000000008152600401611ca8906132f4565b60405180910390fd5b611cbd60008383611a57565b6001600360008473ffffffffffffffffffffffffffffffffffffffff1673ffffffffffffffffffffffffffffffffffffffff1681526020019081526020016000206000828254611d0d919061275d565b92505081905550816002600083815260200190815260200160002060006101000a81548173ffffffffffffffffffffffffffffffffffffffff021916908373ffffffffffffffffffffffffffffffffffffffff160217905550808273ffffffffffffffffffffffffffffffffffffffff16600073ffffffffffffffffffffffffffffffffffffffff167fddf252ad1be2c89b69c2b068fc378daa952ba7f163c4a11628f55a4df523b3ef60405160405180910390a4611dce60008383611a5c565b5050565b6000808273ffffffffffffffffffffffffffffffffffffffff163b119050919050565b6000604051905090565b600080fd5b600080fd5b60007fffffffff0000000000000000000000000000000000000000000000000000000082169050919050565b611e3e81611e09565b8114611e4957600080fd5b50565b600081359050611e5b81611e35565b92915050565b600060208284031215611e7757611e76611dff565b5b6000611e8584828501611e4c565b91505092915050565b60008115159050919050565b611ea381611e8e565b82525050565b6000602082019050611ebe6000830184611e9a565b92915050565b600081519050919050565b600082825260208201905092915050565b60005b83811015611efe578082015181840152602081019050611ee3565b83811115611f0d576000848401525b50505050565b6000601f19601f8301169050919050565b6000611f2f82611ec4565b611f398185611ecf565b9350611f49818560208601611ee0565b611f5281611f13565b840191505092915050565b60006020820190508181036000830152611f778184611f24565b905092915050565b6000819050919050565b611f9281611f7f565b8114611f9d57600080fd5b50565b600081359050611faf81611f89565b92915050565b600060208284031215611fcb57611fca611dff565b5b6000611fd984828501611fa0565b91505092915050565b600073ffffffffffffffffffffffffffffffffffffffff82169050919050565b600061200d82611fe2565b9050919050565b61201d81612002565b82525050565b60006020820190506120386000830184612014565b92915050565b61204781612002565b811461205257600080fd5b50565b6000813590506120648161203e565b92915050565b6000806040838503121561208157612080611dff565b5b600061208f85828601612055565b92505060206120a085828601611fa0565b9150509250929050565b6000819050919050565b6120bd816120aa565b81146120c857600080fd5b50565b6000813590506120da816120b4565b92915050565b6000602082840312156120f6576120f5611dff565b5b6000612104848285016120cb565b91505092915050565b60008060006060848603121561212657612125611dff565b5b600061213486828701612055565b935050602061214586828701612055565b925050604061215686828701611fa0565b9150509250925092565b600080fd5b600080fd5b7f4e487b7100000000000000000000000000000000000000000000000000000000600052604160045260246000fd5b6121a282611f13565b810181811067ffffffffffffffff821117156121c1576121c061216a565b5b80604052505050565b60006121d4611df5565b90506121e08282612199565b919050565b600067ffffffffffffffff821115612200576121ff61216a565b5b61220982611f13565b9050602081019050919050565b82818337600083830152505050565b6000612238612233846121e5565b6121ca565b90508281526020810184848401111561225457612253612165565b5b61225f848285612216565b509392505050565b600082601f83011261227c5761227b612160565b5b813561228c848260208601612225565b91505092915050565b6000602082840312156122ab576122aa611dff565b5b600082013567ffffffffffffffff8111156122c9576122c8611e04565b5b6122d584828501612267565b91505092915050565b6122e781611f7f565b82525050565b600060208201905061230260008301846122de565b92915050565b60006020828403121561231e5761231d611dff565b5b600061232c84828501612055565b91505092915050565b6000819050919050565b600061235a61235561235084611fe2565b612335565b611fe2565b9050919050565b600061236c8261233f565b9050919050565b600061237e82612361565b9050919050565b61238e81612373565b82525050565b60006020820190506123a96000830184612385565b92915050565b6123b881611e8e565b81146123c357600080fd5b50565b6000813590506123d5816123af565b92915050565b600080604083850312156123f2576123f1611dff565b5b600061240085828601612055565b9250506020612411858286016123c6565b9150509250929050565b600067ffffffffffffffff8211156124365761243561216a565b5b61243f82611f13565b9050602081019050919050565b600061245f61245a8461241b565b6121ca565b90508281526020810184848401111561247b5761247a612165565b5b612486848285612216565b509392505050565b600082601f8301126124a3576124a2612160565b5b81356124b384826020860161244c565b91505092915050565b600080600080608085870312156124d6576124d5611dff565b5b60006124e487828801612055565b94505060206124f587828801612055565b935050604061250687828801611fa0565b925050606085013567ffffffffffffffff81111561252757612526611e04565b5b6125338782880161248e565b91505092959194509250565b6000806040838503121561255657612555611dff565b5b600061256485828601612055565b925050602061257585828601612055565b9150509250929050565b7f4e487b7100000000000000000000000000000000000000000000000000000000600052602260045260246000fd5b600060028204905060018216806125c657607f821691505b602082108114156125da576125d961257f565b5b50919050565b7f4552433732313a20617070726f76616c20746f2063757272656e74206f776e6560008201527f7200000000000000000000000000000000000000000000000000000000000000602082015250565b600061263c602183611ecf565b9150612647826125e0565b604082019050919050565b6000602082019050818103600083015261266b8161262f565b9050919050565b7f4552433732313a20617070726f76652063616c6c6572206973206e6f7420746f60008201527f6b656e206f776e6572206e6f7220617070726f76656420666f7220616c6c0000602082015250565b60006126ce603e83611ecf565b91506126d982612672565b604082019050919050565b600060208201905081810360008301526126fd816126c1565b9050919050565b61270d816120aa565b82525050565b60006020820190506127286000830184612704565b92915050565b7f4e487b7100000000000000000000000000000000000000000000000000000000600052601160045260246000fd5b600061276882611f7f565b915061277383611f7f565b9250827fffffffffffffffffffffffffffffffffffffffffffffffffffffffffffffffff038211156127a8576127a761272e565b5b828201905092915050565b7f4552433732313a2063616c6c6572206973206e6f7420746f6b656e206f776e6560008201527f72206e6f7220617070726f766564000000000000000000000000000000000000602082015250565b600061280f602e83611ecf565b915061281a826127b3565b604082019050919050565b6000602082019050818103600083015261283e81612802565b9050919050565b600081905092915050565b600061285b82611ec4565b6128658185612845565b9350612875818560208601611ee0565b80840191505092915050565b600061288d8284612850565b915081905092915050565b60006128a48285612850565b91506128b08284612850565b91508190509392505050565b7f4552433732313a20696e76616c696420746f6b656e2049440000000000000000600082015250565b60006128f2601883611ecf565b91506128fd826128bc565b602082019050919050565b60006020820190508181036000830152612921816128e5565b9050919050565b7f4552433732313a2061646472657373207a65726f206973206e6f74206120766160008201527f6c6964206f776e65720000000000000000000000000000000000000000000000602082015250565b6000612984602983611ecf565b915061298f82612928565b604082019050919050565b600060208201905081810360008301526129b381612977565b9050919050565b7f4552433732314d657461646174613a2055524920717565727920666f72206e6f60008201527f6e6578697374656e7420746f6b656e0000000000000000000000000000000000602082015250565b6000612a16602f83611ecf565b9150612a21826129ba565b604082019050919050565b60006020820190508181036000830152612a4581612a09565b9050919050565b600069ffffffffffffffffffff82169050919050565b612a6b81612a4c565b8114612a7657600080fd5b50565b600081519050612a8881612a62565b92915050565b600081519050612a9d816120b4565b92915050565b600081519050612ab281611f89565b92915050565b600080600080600060a08688031215612ad457612ad3611dff565b5b6000612ae288828901612a79565b9550506020612af388828901612a8e565b9450506040612b0488828901612aa3565b9350506060612b1588828901612aa3565b9250506080612b2688828901612a79565b9150509295509295909350565b7f7b226e616d65223a220000000000000000000000000000000000000000000000600082015250565b6000612b69600983612845565b9150612b7482612b33565b600982019050919050565b7f222c20226465736372697074696f6e223a22416e204e4654207468617420636860008201527f616e676573206261736564206f6e2074686520436861696e6c696e6b2046656560208201527f64222c2000000000000000000000000000000000000000000000000000000000604082015250565b6000612c01604483612845565b9150612c0c82612b7f565b604482019050919050565b7f2261747472696275746573223a205b7b2274726169745f74797065223a20226360008201527f6f6f6c6e657373222c202276616c7565223a203130307d5d2c2022696d61676560208201527f223a220000000000000000000000000000000000000000000000000000000000604082015250565b6000612c99604383612845565b9150612ca482612c17565b604382019050919050565b7f227d000000000000000000000000000000000000000000000000000000000000600082015250565b6000612ce5600283612845565b9150612cf082612caf565b600282019050919050565b6000612d0682612b5c565b9150612d128285612850565b9150612d1d82612bf4565b9150612d2882612c8c565b9150612d348284612850565b9150612d3f82612cd8565b91508190509392505050565b7f4f776e61626c653a206e6577206f776e657220697320746865207a65726f206160008201527f6464726573730000000000000000000000000000000000000000000000000000602082015250565b6000612da7602683611ecf565b9150612db282612d4b565b604082019050919050565b60006020820190508181036000830152612dd681612d9a565b9050919050565b7f4e487b7100000000000000000000000000000000000000000000000000000000600052601260045260246000fd5b6000612e1782611f7f565b9150612e2283611f7f565b925082612e3257612e31612ddd565b5b828204905092915050565b6000612e4882611f7f565b9150612e5383611f7f565b9250817fffffffffffffffffffffffffffffffffffffffffffffffffffffffffffffffff0483118215151615612e8c57612e8b61272e565b5b828202905092915050565b7f4552433732313a207472616e736665722066726f6d20696e636f72726563742060008201527f6f776e6572000000000000000000000000000000000000000000000000000000602082015250565b6000612ef3602583611ecf565b9150612efe82612e97565b604082019050919050565b60006020820190508181036000830152612f2281612ee6565b9050919050565b7f4552433732313a207472616e7366657220746f20746865207a65726f2061646460008201527f7265737300000000000000000000000000000000000000000000000000000000602082015250565b6000612f85602483611ecf565b9150612f9082612f29565b604082019050919050565b60006020820190508181036000830152612fb481612f78565b9050919050565b6000612fc682611f7f565b9150612fd183611f7f565b925082821015612fe457612fe361272e565b5b828203905092915050565b7f4f776e61626c653a2063616c6c6572206973206e6f7420746865206f776e6572600082015250565b6000613025602083611ecf565b915061303082612fef565b602082019050919050565b6000602082019050818103600083015261305481613018565b9050919050565b7f4552433732313a20617070726f766520746f2063616c6c657200000000000000600082015250565b6000613091601983611ecf565b915061309c8261305b565b602082019050919050565b600060208201905081810360008301526130c081613084565b9050919050565b7f4552433732313a207472616e7366657220746f206e6f6e20455243373231526560008201527f63656976657220696d706c656d656e7465720000000000000000000000000000602082015250565b6000613123603283611ecf565b915061312e826130c7565b604082019050919050565b6000602082019050818103600083015261315281613116565b9050919050565b600081519050919050565b600082825260208201905092915050565b600061318082613159565b61318a8185613164565b935061319a818560208601611ee0565b6131a381611f13565b840191505092915050565b60006080820190506131c36000830187612014565b6131d06020830186612014565b6131dd60408301856122de565b81810360608301526131ef8184613175565b905095945050505050565b60008151905061320981611e35565b92915050565b60006020828403121561322557613224611dff565b5b6000613233848285016131fa565b91505092915050565b7f4552433732313a206d696e7420746f20746865207a65726f2061646472657373600082015250565b6000613272602083611ecf565b915061327d8261323c565b602082019050919050565b600060208201905081810360008301526132a181613265565b9050919050565b7f4552433732313a20746f6b656e20616c7265616479206d696e74656400000000600082015250565b60006132de601c83611ecf565b91506132e9826132a8565b602082019050919050565b6000602082019050818103600083015261330d816132d1565b905091905056fe4142434445464748494a4b4c4d4e4f505152535455565758595a6162636465666768696a6b6c6d6e6f707172737475767778797a303132333435363738392b2fa2646970667358221220233bea2c6226976648715e7eeaed3f020b5cd097fb67b5b2326f422eb434366464736f6c634300080800334142434445464748494a4b4c4d4e4f505152535455565758595a6162636465666768696a6b6c6d6e6f707172737475767778797a303132333435363738392b2f",
  "linkReferences": {},
  "deployedLinkReferences": {}
}