{
  "address": "0x95775fD3Afb1F4072794CA4ddA27F2444BCf8Ac3",
  "abi": [
    {
      "inputs": [
        {
          "internalType": "address",
          "name": "vrfCoordinatorV2",
          "type": "address"
        },
        {
          "internalType": "uint64",
          "name": "subscriptionId",
          "type": "uint64"
        },
        {
          "internalType": "bytes32",
          "name": "gasLane",
          "type": "bytes32"
        },
        {
          "internalType": "uint32",
          "name": "callbackGasLimit",
          "type": "uint32"
        },
        {
          "internalType": "string[3]",
          "name": "goblinTokenUris",
          "type": "string[3]"
        },
        {
          "internalType": "uint256",
          "name": "mintFee",
          "type": "uint256"
        }
      ],
      "stateMutability": "nonpayable",
      "type": "constructor"
    },
    {
      "inputs": [],
      "name": "AlreadyInitialized",
      "type": "error"
    },
    {
      "inputs": [
        {
          "internalType": "address",
          "name": "have",
          "type": "address"
        },
        {
          "internalType": "address",
          "name": "want",
          "type": "address"
        }
      ],
      "name": "OnlyCoordinatorCanFulfill",
      "type": "error"
    },
    {
      "inputs": [],
      "name": "RandomIpfsNft__NeedMoreETHSent",
      "type": "error"
    },
    {
      "inputs": [],
      "name": "RandomIpfsNft__RangeOutOfBounds",
      "type": "error"
    },
    {
      "inputs": [],
      "name": "RandomIpfsNft__TransferFailed",
      "type": "error"
    },
    {
      "anonymous": false,
      "inputs": [
        {
          "indexed": true,
          "internalType": "address",
          "name": "owner",
          "type": "address"
        },
        {
          "indexed": true,
          "internalType": "address",
          "name": "approved",
          "type": "address"
        },
        {
          "indexed": true,
          "internalType": "uint256",
          "name": "tokenId",
          "type": "uint256"
        }
      ],
      "name": "Approval",
      "type": "event"
    },
    {
      "anonymous": false,
      "inputs": [
        {
          "indexed": true,
          "internalType": "address",
          "name": "owner",
          "type": "address"
        },
        {
          "indexed": true,
          "internalType": "address",
          "name": "operator",
          "type": "address"
        },
        {
          "indexed": false,
          "internalType": "bool",
          "name": "approved",
          "type": "bool"
        }
      ],
      "name": "ApprovalForAll",
      "type": "event"
    },
    {
      "anonymous": false,
      "inputs": [
        {
          "indexed": false,
          "internalType": "enum RandomIpfsNft.Breed",
          "name": "goblinBreed",
          "type": "uint8"
        },
        {
          "indexed": false,
          "internalType": "address",
          "name": "minter",
          "type": "address"
        }
      ],
      "name": "NFTMinted",
      "type": "event"
    },
    {
      "anonymous": false,
      "inputs": [
        {
          "indexed": true,
          "internalType": "uint256",
          "name": "requestId",
          "type": "uint256"
        },
        {
          "indexed": false,
          "internalType": "address",
          "name": "requester",
          "type": "address"
        }
      ],
      "name": "NftRequested",
      "type": "event"
    },
    {
      "anonymous": false,
      "inputs": [
        {
          "indexed": true,
          "internalType": "address",
          "name": "previousOwner",
          "type": "address"
        },
        {
          "indexed": true,
          "internalType": "address",
          "name": "newOwner",
          "type": "address"
        }
      ],
      "name": "OwnershipTransferred",
      "type": "event"
    },
    {
      "anonymous": false,
      "inputs": [
        {
          "indexed": true,
          "internalType": "address",
          "name": "from",
          "type": "address"
        },
        {
          "indexed": true,
          "internalType": "address",
          "name": "to",
          "type": "address"
        },
        {
          "indexed": true,
          "internalType": "uint256",
          "name": "tokenId",
          "type": "uint256"
        }
      ],
      "name": "Transfer",
      "type": "event"
    },
    {
      "inputs": [
        {
          "internalType": "address",
          "name": "to",
          "type": "address"
        },
        {
          "internalType": "uint256",
          "name": "tokenId",
          "type": "uint256"
        }
      ],
      "name": "approve",
      "outputs": [],
      "stateMutability": "nonpayable",
      "type": "function"
    },
    {
      "inputs": [
        {
          "internalType": "address",
          "name": "owner",
          "type": "address"
        }
      ],
      "name": "balanceOf",
      "outputs": [
        {
          "internalType": "uint256",
          "name": "",
          "type": "uint256"
        }
      ],
      "stateMutability": "view",
      "type": "function"
    },
    {
      "inputs": [
        {
          "internalType": "uint256",
          "name": "tokenId",
          "type": "uint256"
        }
      ],
      "name": "getApproved",
      "outputs": [
        {
          "internalType": "address",
          "name": "",
          "type": "address"
        }
      ],
      "stateMutability": "view",
      "type": "function"
    },
    {
      "inputs": [
        {
          "internalType": "uint256",
          "name": "moddedRng",
          "type": "uint256"
        }
      ],
      "name": "getBreedFromModdedRng",
      "outputs": [
        {
          "internalType": "enum RandomIpfsNft.Breed",
          "name": "",
          "type": "uint8"
        }
      ],
      "stateMutability": "pure",
      "type": "function"
    },
    {
      "inputs": [],
      "name": "getChanceArray",
      "outputs": [
        {
          "internalType": "uint256[3]",
          "name": "",
          "type": "uint256[3]"
        }
      ],
      "stateMutability": "pure",
      "type": "function"
    },
    {
      "inputs": [
        {
          "internalType": "uint256",
          "name": "index",
          "type": "uint256"
        }
      ],
      "name": "getGoblinTokenUris",
      "outputs": [
        {
          "internalType": "string",
          "name": "",
          "type": "string"
        }
      ],
      "stateMutability": "view",
      "type": "function"
    },
    {
      "inputs": [],
      "name": "getMintFee",
      "outputs": [
        {
          "internalType": "uint256",
          "name": "",
          "type": "uint256"
        }
      ],
      "stateMutability": "view",
      "type": "function"
    },
    {
      "inputs": [],
      "name": "getTokenCounter",
      "outputs": [
        {
          "internalType": "uint256",
          "name": "",
          "type": "uint256"
        }
      ],
      "stateMutability": "view",
      "type": "function"
    },
    {
      "inputs": [
        {
          "internalType": "address",
          "name": "owner",
          "type": "address"
        },
        {
          "internalType": "address",
          "name": "operator",
          "type": "address"
        }
      ],
      "name": "isApprovedForAll",
      "outputs": [
        {
          "internalType": "bool",
          "name": "",
          "type": "bool"
        }
      ],
      "stateMutability": "view",
      "type": "function"
    },
    {
      "inputs": [],
      "name": "name",
      "outputs": [
        {
          "internalType": "string",
          "name": "",
          "type": "string"
        }
      ],
      "stateMutability": "view",
      "type": "function"
    },
    {
      "inputs": [],
      "name": "owner",
      "outputs": [
        {
          "internalType": "address",
          "name": "",
          "type": "address"
        }
      ],
      "stateMutability": "view",
      "type": "function"
    },
    {
      "inputs": [
        {
          "internalType": "uint256",
          "name": "tokenId",
          "type": "uint256"
        }
      ],
      "name": "ownerOf",
      "outputs": [
        {
          "internalType": "address",
          "name": "",
          "type": "address"
        }
      ],
      "stateMutability": "view",
      "type": "function"
    },
    {
      "inputs": [
        {
          "internalType": "uint256",
          "name": "requestId",
          "type": "uint256"
        },
        {
          "internalType": "uint256[]",
          "name": "randomWords",
          "type": "uint256[]"
        }
      ],
      "name": "rawFulfillRandomWords",
      "outputs": [],
      "stateMutability": "nonpayable",
      "type": "function"
    },
    {
      "inputs": [],
      "name": "renounceOwnership",
      "outputs": [],
      "stateMutability": "nonpayable",
      "type": "function"
    },
    {
      "inputs": [],
      "name": "requestNft",
      "outputs": [
        {
          "internalType": "uint256",
          "name": "requestId",
          "type": "uint256"
        }
      ],
      "stateMutability": "payable",
      "type": "function"
    },
    {
      "inputs": [
        {
          "internalType": "uint256",
          "name": "",
          "type": "uint256"
        }
      ],
      "name": "s_requestIdToSender",
      "outputs": [
        {
          "internalType": "address",
          "name": "",
          "type": "address"
        }
      ],
      "stateMutability": "view",
      "type": "function"
    },
    {
      "inputs": [],
      "name": "s_tokenCounter",
      "outputs": [
        {
          "internalType": "uint256",
          "name": "",
          "type": "uint256"
        }
      ],
      "stateMutability": "view",
      "type": "function"
    },
    {
      "inputs": [
        {
          "internalType": "address",
          "name": "from",
          "type": "address"
        },
        {
          "internalType": "address",
          "name": "to",
          "type": "address"
        },
        {
          "internalType": "uint256",
          "name": "tokenId",
          "type": "uint256"
        }
      ],
      "name": "safeTransferFrom",
      "outputs": [],
      "stateMutability": "nonpayable",
      "type": "function"
    },
    {
      "inputs": [
        {
          "internalType": "address",
          "name": "from",
          "type": "address"
        },
        {
          "internalType": "address",
          "name": "to",
          "type": "address"
        },
        {
          "internalType": "uint256",
          "name": "tokenId",
          "type": "uint256"
        },
        {
          "internalType": "bytes",
          "name": "data",
          "type": "bytes"
        }
      ],
      "name": "safeTransferFrom",
      "outputs": [],
      "stateMutability": "nonpayable",
      "type": "function"
    },
    {
      "inputs": [
        {
          "internalType": "address",
          "name": "operator",
          "type": "address"
        },
        {
          "internalType": "bool",
          "name": "approved",
          "type": "bool"
        }
      ],
      "name": "setApprovalForAll",
      "outputs": [],
      "stateMutability": "nonpayable",
      "type": "function"
    },
    {
      "inputs": [
        {
          "internalType": "bytes4",
          "name": "interfaceId",
          "type": "bytes4"
        }
      ],
      "name": "supportsInterface",
      "outputs": [
        {
          "internalType": "bool",
          "name": "",
          "type": "bool"
        }
      ],
      "stateMutability": "view",
      "type": "function"
    },
    {
      "inputs": [],
      "name": "symbol",
      "outputs": [
        {
          "internalType": "string",
          "name": "",
          "type": "string"
        }
      ],
      "stateMutability": "view",
      "type": "function"
    },
    {
      "inputs": [
        {
          "internalType": "uint256",
          "name": "tokenId",
          "type": "uint256"
        }
      ],
      "name": "tokenURI",
      "outputs": [
        {
          "internalType": "string",
          "name": "",
          "type": "string"
        }
      ],
      "stateMutability": "view",
      "type": "function"
    },
    {
      "inputs": [
        {
          "internalType": "address",
          "name": "from",
          "type": "address"
        },
        {
          "internalType": "address",
          "name": "to",
          "type": "address"
        },
        {
          "internalType": "uint256",
          "name": "tokenId",
          "type": "uint256"
        }
      ],
      "name": "transferFrom",
      "outputs": [],
      "stateMutability": "nonpayable",
      "type": "function"
    },
    {
      "inputs": [
        {
          "internalType": "address",
          "name": "newOwner",
          "type": "address"
        }
      ],
      "name": "transferOwnership",
      "outputs": [],
      "stateMutability": "nonpayable",
      "type": "function"
    },
    {
      "inputs": [],
      "name": "withdraw",
      "outputs": [],
      "stateMutability": "nonpayable",
      "type": "function"
    }
  ],
  "transactionHash": "0x85d04897f8f96694087bc5bdad4f8fc9d21633e747a9ac1b2399039688de555c",
  "args": [
    "0x0a17FabeA4633ce714F1Fa4a2dcA62C3bAc4758d",
    "1",
    "0xd89b2bf150e3b9e13446986e571fb9cab24b13cea0a43ea20a6049a85cc807cc",
    "500000",
    [
      "ipfs://QmQFMAHeeunj2vFxVJYPPkq1oou9tRFzf3Mhpz8ePUcZrY",
      "ipfs://QmQQ2J37xxQPR1VWVb1V3Mb1jnd3t8EeGBnuJV4CYGeCZt",
      "ipfs://QmPjEcStadNEoiaB3d36zVNe6M2gk8H1NXigK5wU2wU74J"
    ],
    "10000000000000000"
  ],
  "numDeployments": 1,
  "solcInputHash": "d1451f924c7b0eb747a49ba67d3b8fd8",
  "bytecode": "0x6101206040523480156200001257600080fd5b50604051620045703803806200457083398181016040528101906200003891906200098d565b6040518060400160405280600f81526020017f52616e646f6d2049504653204e465400000000000000000000000000000000008152506040518060400160405280600381526020017f52494e0000000000000000000000000000000000000000000000000000000000815250878073ffffffffffffffffffffffffffffffffffffffff1660808173ffffffffffffffffffffffffffffffffffffffff1660601b81525050508160009080519060200190620000f592919062000420565b5080600190805190602001906200010e92919062000420565b50505062000131620001256200020c60201b60201c565b6200021460201b60201c565b8573ffffffffffffffffffffffffffffffffffffffff1660a08173ffffffffffffffffffffffffffffffffffffffff1660601b8152505084600760146101000a81548167ffffffffffffffff021916908367ffffffffffffffff160217905550620001c7600760149054906101000a900467ffffffffffffffff1667ffffffffffffffff16620002da60201b620014041760201c565b8360c081815250508263ffffffff1660e08163ffffffff1660e01b8152505080610100818152505062000200826200037d60201b60201c565b50505050505062000adb565b600033905090565b6000600760009054906101000a900473ffffffffffffffffffffffffffffffffffffffff16905081600760006101000a81548173ffffffffffffffffffffffffffffffffffffffff021916908373ffffffffffffffffffffffffffffffffffffffff1602179055508173ffffffffffffffffffffffffffffffffffffffff168173ffffffffffffffffffffffffffffffffffffffff167f8be0079c531659141344cd1fd0a4f28419497f9722a3daafe3b4186f6b6457e060405160405180910390a35050565b6200037a81604051602401620002f1919062000a59565b6040516020818303038152906040527ff5b1bba9000000000000000000000000000000000000000000000000000000007bffffffffffffffffffffffffffffffffffffffffffffffffffffffff19166020820180517bffffffffffffffffffffffffffffffffffffffffffffffffffffffff8381831617835250505050620003f760201b60201c565b50565b600960009054906101000a900460ff1615620003c5576040517f0dc149f000000000000000000000000000000000000000000000000000000000815260040160405180910390fd5b806008906003620003d8929190620004b1565b506001600960006101000a81548160ff02191690831515021790555050565b60008151905060006a636f6e736f6c652e6c6f679050602083016000808483855afa5050505050565b8280546200042e9062000aa5565b90600052602060002090601f0160209004810192826200045257600085556200049e565b82601f106200046d57805160ff19168380011785556200049e565b828001600101855582156200049e579182015b828111156200049d57825182559160200191906001019062000480565b5b509050620004ad919062000518565b5090565b82805482825590600052602060002090810192821562000505579160200282015b8281111562000504578251829080519060200190620004f392919062000420565b5091602001919060010190620004d2565b5b50905062000514919062000537565b5090565b5b808211156200053357600081600090555060010162000519565b5090565b5b808211156200055b57600081816200055191906200055f565b5060010162000538565b5090565b5080546200056d9062000aa5565b6000825580601f10620005815750620005a2565b601f016020900490600052602060002090810190620005a1919062000518565b5b50565b6000604051905090565b600080fd5b600080fd5b600073ffffffffffffffffffffffffffffffffffffffff82169050919050565b6000620005e682620005b9565b9050919050565b620005f881620005d9565b81146200060457600080fd5b50565b6000815190506200061881620005ed565b92915050565b600067ffffffffffffffff82169050919050565b6200063d816200061e565b81146200064957600080fd5b50565b6000815190506200065d8162000632565b92915050565b6000819050919050565b620006788162000663565b81146200068457600080fd5b50565b60008151905062000698816200066d565b92915050565b600063ffffffff82169050919050565b620006b9816200069e565b8114620006c557600080fd5b50565b600081519050620006d981620006ae565b92915050565b600080fd5b6000601f19601f8301169050919050565b7f4e487b7100000000000000000000000000000000000000000000000000000000600052604160045260246000fd5b6200072f82620006e4565b810181811067ffffffffffffffff82111715620007515762000750620006f5565b5b80604052505050565b600062000766620005a5565b905062000774828262000724565b919050565b600067ffffffffffffffff821115620007975762000796620006f5565b5b602082029050919050565b600080fd5b600080fd5b600067ffffffffffffffff821115620007ca57620007c9620006f5565b5b620007d582620006e4565b9050602081019050919050565b60005b8381101562000802578082015181840152602081019050620007e5565b8381111562000812576000848401525b50505050565b60006200082f6200082984620007ac565b6200075a565b9050828152602081018484840111156200084e576200084d620007a7565b5b6200085b848285620007e2565b509392505050565b600082601f8301126200087b576200087a620006df565b5b81516200088d84826020860162000818565b91505092915050565b6000620008ad620008a78462000779565b6200075a565b90508060208402830185811115620008ca57620008c9620007a2565b5b835b818110156200091857805167ffffffffffffffff811115620008f357620008f2620006df565b5b80860162000902898262000863565b85526020850194505050602081019050620008cc565b5050509392505050565b600082601f8301126200093a5762000939620006df565b5b60036200094984828562000896565b91505092915050565b6000819050919050565b620009678162000952565b81146200097357600080fd5b50565b60008151905062000987816200095c565b92915050565b60008060008060008060c08789031215620009ad57620009ac620005af565b5b6000620009bd89828a0162000607565b9650506020620009d089828a016200064c565b9550506040620009e389828a0162000687565b9450506060620009f689828a01620006c8565b935050608087015167ffffffffffffffff81111562000a1a5762000a19620005b4565b5b62000a2889828a0162000922565b92505060a062000a3b89828a0162000976565b9150509295509295509295565b62000a538162000952565b82525050565b600060208201905062000a70600083018462000a48565b92915050565b7f4e487b7100000000000000000000000000000000000000000000000000000000600052602260045260246000fd5b6000600282049050600182168062000abe57607f821691505b6020821081141562000ad55762000ad462000a76565b5b50919050565b60805160601c60a05160601c60c05160e05160e01c61010051613a3962000b3760003960008181610d760152610f85015260006110550152600061101b01526000610fdf01526000818161091d01526109710152613a396000f3fe6080604052600436106101815760003560e01c806370a08231116100d1578063a36f573b1161008a578063b88d4fde11610064578063b88d4fde14610577578063c87b56dd146105a0578063e985e9c5146105dd578063f2fde38b1461061a57610181565b8063a36f573b146104df578063a51cccf31461051c578063aa1524911461055957610181565b806370a08231146103e1578063715018a61461041e5780637a5caab3146104355780638da5cb5b1461046057806395d89b411461048b578063a22cb465146104b657610181565b806323b872dd1161013e57806342842e0e1161011857806342842e0e146103255780635dacf5f41461034e5780636352211e146103795780636e02007d146103b657610181565b806323b872dd146102a85780633ccfd60b146102d157806342419c05146102e857610181565b806301ffc9a71461018657806306fdde03146101c3578063081812fc146101ee578063095ea7b31461022b5780630b21a83b146102545780631fe543e31461027f575b600080fd5b34801561019257600080fd5b506101ad60048036038101906101a891906125e7565b610643565b6040516101ba919061262f565b60405180910390f35b3480156101cf57600080fd5b506101d8610725565b6040516101e591906126e3565b60405180910390f35b3480156101fa57600080fd5b506102156004803603810190610210919061273b565b6107b7565b60405161022291906127a9565b60405180910390f35b34801561023757600080fd5b50610252600480360381019061024d91906127f0565b6107fd565b005b34801561026057600080fd5b50610269610915565b604051610276919061283f565b60405180910390f35b34801561028b57600080fd5b506102a660048036038101906102a191906129a2565b61091b565b005b3480156102b457600080fd5b506102cf60048036038101906102ca91906129fe565b6109db565b005b3480156102dd57600080fd5b506102e6610a3b565b005b3480156102f457600080fd5b5061030f600480360381019061030a919061273b565b610aef565b60405161031c91906126e3565b60405180910390f35b34801561033157600080fd5b5061034c600480360381019061034791906129fe565b610b9f565b005b34801561035a57600080fd5b50610363610bbf565b6040516103709190612afc565b60405180910390f35b34801561038557600080fd5b506103a0600480360381019061039b919061273b565b610bea565b6040516103ad91906127a9565b60405180910390f35b3480156103c257600080fd5b506103cb610c9c565b6040516103d8919061283f565b60405180910390f35b3480156103ed57600080fd5b5061040860048036038101906104039190612b17565b610ca6565b604051610415919061283f565b60405180910390f35b34801561042a57600080fd5b50610433610d5e565b005b34801561044157600080fd5b5061044a610d72565b604051610457919061283f565b60405180910390f35b34801561046c57600080fd5b50610475610d9a565b60405161048291906127a9565b60405180910390f35b34801561049757600080fd5b506104a0610dc4565b6040516104ad91906126e3565b60405180910390f35b3480156104c257600080fd5b506104dd60048036038101906104d89190612b70565b610e56565b005b3480156104eb57600080fd5b506105066004803603810190610501919061273b565b610e6c565b60405161051391906127a9565b60405180910390f35b34801561052857600080fd5b50610543600480360381019061053e919061273b565b610e9f565b6040516105509190612c27565b60405180910390f35b610561610f81565b60405161056e919061283f565b60405180910390f35b34801561058357600080fd5b5061059e60048036038101906105999190612cf7565b611177565b005b3480156105ac57600080fd5b506105c760048036038101906105c2919061273b565b6111d9565b6040516105d491906126e3565b60405180910390f35b3480156105e957600080fd5b5061060460048036038101906105ff9190612d7a565b6112ec565b604051610611919061262f565b60405180910390f35b34801561062657600080fd5b50610641600480360381019061063c9190612b17565b611380565b005b60007f80ac58cd000000000000000000000000000000000000000000000000000000007bffffffffffffffffffffffffffffffffffffffffffffffffffffffff1916827bffffffffffffffffffffffffffffffffffffffffffffffffffffffff1916148061070e57507f5b5e139f000000000000000000000000000000000000000000000000000000007bffffffffffffffffffffffffffffffffffffffffffffffffffffffff1916827bffffffffffffffffffffffffffffffffffffffffffffffffffffffff1916145b8061071e575061071d8261149d565b5b9050919050565b60606000805461073490612de9565b80601f016020809104026020016040519081016040528092919081815260200182805461076090612de9565b80156107ad5780601f10610782576101008083540402835291602001916107ad565b820191906000526020600020905b81548152906001019060200180831161079057829003601f168201915b5050505050905090565b60006107c282611507565b6004600083815260200190815260200160002060009054906101000a900473ffffffffffffffffffffffffffffffffffffffff169050919050565b600061080882610bea565b90508073ffffffffffffffffffffffffffffffffffffffff168373ffffffffffffffffffffffffffffffffffffffff161415610879576040517f08c379a000000000000000000000000000000000000000000000000000000000815260040161087090612e8d565b60405180910390fd5b8073ffffffffffffffffffffffffffffffffffffffff16610898611552565b73ffffffffffffffffffffffffffffffffffffffff1614806108c757506108c6816108c1611552565b6112ec565b5b610906576040517f08c379a00000000000000000000000000000000000000000000000000000000081526004016108fd90612f1f565b60405180910390fd5b610910838361155a565b505050565b600b5481565b7f000000000000000000000000000000000000000000000000000000000000000073ffffffffffffffffffffffffffffffffffffffff163373ffffffffffffffffffffffffffffffffffffffff16146109cd57337f00000000000000000000000000000000000000000000000000000000000000006040517f1cf993f40000000000000000000000000000000000000000000000000000000081526004016109c4929190612f3f565b60405180910390fd5b6109d78282611613565b5050565b6109ec6109e6611552565b826117ad565b610a2b576040517f08c379a0000000000000000000000000000000000000000000000000000000008152600401610a2290612fda565b60405180910390fd5b610a36838383611842565b505050565b610a43611aa9565b600047905060003373ffffffffffffffffffffffffffffffffffffffff1682604051610a6e9061302b565b60006040518083038185875af1925050503d8060008114610aab576040519150601f19603f3d011682016040523d82523d6000602084013e610ab0565b606091505b5050905080610aeb576040517fca7e25b700000000000000000000000000000000000000000000000000000000815260040160405180910390fd5b5050565b606060088281548110610b0557610b04613040565b5b906000526020600020018054610b1a90612de9565b80601f0160208091040260200160405190810160405280929190818152602001828054610b4690612de9565b8015610b935780601f10610b6857610100808354040283529160200191610b93565b820191906000526020600020905b815481529060010190602001808311610b7657829003601f168201915b50505050509050919050565b610bba83838360405180602001604052806000815250611177565b505050565b610bc76124b6565b6040518060600160405280600a8152602001601e81526020016064815250905090565b6000806002600084815260200190815260200160002060009054906101000a900473ffffffffffffffffffffffffffffffffffffffff169050600073ffffffffffffffffffffffffffffffffffffffff168173ffffffffffffffffffffffffffffffffffffffff161415610c93576040517f08c379a0000000000000000000000000000000000000000000000000000000008152600401610c8a906130bb565b60405180910390fd5b80915050919050565b6000600b54905090565b60008073ffffffffffffffffffffffffffffffffffffffff168273ffffffffffffffffffffffffffffffffffffffff161415610d17576040517f08c379a0000000000000000000000000000000000000000000000000000000008152600401610d0e9061314d565b60405180910390fd5b600360008373ffffffffffffffffffffffffffffffffffffffff1673ffffffffffffffffffffffffffffffffffffffff168152602001908152602001600020549050919050565b610d66611aa9565b610d706000611b27565b565b60007f0000000000000000000000000000000000000000000000000000000000000000905090565b6000600760009054906101000a900473ffffffffffffffffffffffffffffffffffffffff16905090565b606060018054610dd390612de9565b80601f0160208091040260200160405190810160405280929190818152602001828054610dff90612de9565b8015610e4c5780601f10610e2157610100808354040283529160200191610e4c565b820191906000526020600020905b815481529060010190602001808311610e2f57829003601f168201915b5050505050905090565b610e68610e61611552565b8383611bed565b5050565b600a6020528060005260406000206000915054906101000a900473ffffffffffffffffffffffffffffffffffffffff1681565b600080600090506000610eb0610bbf565b905060005b6003811015610f4957828510158015610eef5750818160038110610edc57610edb613040565b5b602002015183610eec919061319c565b85105b15610f1157806002811115610f0757610f06612bb0565b5b9350505050610f7c565b818160038110610f2457610f23613040565b5b602002015183610f34919061319c565b92508080610f41906131f2565b915050610eb5565b506040517f12806c9d00000000000000000000000000000000000000000000000000000000815260040160405180910390fd5b919050565b60007f0000000000000000000000000000000000000000000000000000000000000000341015610fdd576040517fb90f491000000000000000000000000000000000000000000000000000000000815260040160405180910390fd5b7f000000000000000000000000000000000000000000000000000000000000000073ffffffffffffffffffffffffffffffffffffffff16635d3b1d307f0000000000000000000000000000000000000000000000000000000000000000600760149054906101000a900467ffffffffffffffff1660037f000000000000000000000000000000000000000000000000000000000000000060016040518663ffffffff1660e01b81526004016110969594939291906132b3565b602060405180830381600087803b1580156110b057600080fd5b505af11580156110c4573d6000803e3d6000fd5b505050506040513d601f19601f820116820180604052508101906110e8919061331b565b905033600a600083815260200190815260200160002060006101000a81548173ffffffffffffffffffffffffffffffffffffffff021916908373ffffffffffffffffffffffffffffffffffffffff160217905550807ff873236e6cc0ecc5be1a9a35c95ee5b8d1ac4cc7bfef0cc5060391d6cc98e26b3360405161116c91906127a9565b60405180910390a290565b611188611182611552565b836117ad565b6111c7576040517f08c379a00000000000000000000000000000000000000000000000000000000081526004016111be90612fda565b60405180910390fd5b6111d384848484611d5a565b50505050565b60606111e482611507565b600060066000848152602001908152602001600020805461120490612de9565b80601f016020809104026020016040519081016040528092919081815260200182805461123090612de9565b801561127d5780601f106112525761010080835404028352916020019161127d565b820191906000526020600020905b81548152906001019060200180831161126057829003601f168201915b50505050509050600061128e611db6565b90506000815114156112a45781925050506112e7565b6000825111156112d95780826040516020016112c1929190613384565b604051602081830303815290604052925050506112e7565b6112e284611dcd565b925050505b919050565b6000600560008473ffffffffffffffffffffffffffffffffffffffff1673ffffffffffffffffffffffffffffffffffffffff16815260200190815260200160002060008373ffffffffffffffffffffffffffffffffffffffff1673ffffffffffffffffffffffffffffffffffffffff16815260200190815260200160002060009054906101000a900460ff16905092915050565b611388611aa9565b600073ffffffffffffffffffffffffffffffffffffffff168173ffffffffffffffffffffffffffffffffffffffff1614156113f8576040517f08c379a00000000000000000000000000000000000000000000000000000000081526004016113ef9061341a565b60405180910390fd5b61140181611b27565b50565b61149a81604051602401611418919061283f565b6040516020818303038152906040527ff5b1bba9000000000000000000000000000000000000000000000000000000007bffffffffffffffffffffffffffffffffffffffffffffffffffffffff19166020820180517bffffffffffffffffffffffffffffffffffffffffffffffffffffffff8381831617835250505050611e35565b50565b60007f01ffc9a7000000000000000000000000000000000000000000000000000000007bffffffffffffffffffffffffffffffffffffffffffffffffffffffff1916827bffffffffffffffffffffffffffffffffffffffffffffffffffffffff1916149050919050565b61151081611e5e565b61154f576040517f08c379a0000000000000000000000000000000000000000000000000000000008152600401611546906130bb565b60405180910390fd5b50565b600033905090565b816004600083815260200190815260200160002060006101000a81548173ffffffffffffffffffffffffffffffffffffffff021916908373ffffffffffffffffffffffffffffffffffffffff160217905550808273ffffffffffffffffffffffffffffffffffffffff166115cd83610bea565b73ffffffffffffffffffffffffffffffffffffffff167f8c5be1e5ebec7d5bd14f71427d1e84f3dd0314c0f7b2291e5b200ac8c7c3b92560405160405180910390a45050565b6000600a600084815260200190815260200160002060009054906101000a900473ffffffffffffffffffffffffffffffffffffffff1690506000600b549050600060648460008151811061166a57611669613040565b5b602002602001015161167c9190613469565b9050600061168982610e9f565b90506001600b5461169a919061319c565b600b819055506116aa8484611eca565b61176c8360088360028111156116c3576116c2612bb0565b5b815481106116d4576116d3613040565b5b9060005260206000200180546116e990612de9565b80601f016020809104026020016040519081016040528092919081815260200182805461171590612de9565b80156117625780601f1061173757610100808354040283529160200191611762565b820191906000526020600020905b81548152906001019060200180831161174557829003601f168201915b5050505050611ee8565b7fab79897476febbd649710b1bd1dc3e93a316d3dee65f65b022ab89a4b7e206b5818560405161179d92919061349a565b60405180910390a1505050505050565b6000806117b983610bea565b90508073ffffffffffffffffffffffffffffffffffffffff168473ffffffffffffffffffffffffffffffffffffffff1614806117fb57506117fa81856112ec565b5b8061183957508373ffffffffffffffffffffffffffffffffffffffff16611821846107b7565b73ffffffffffffffffffffffffffffffffffffffff16145b91505092915050565b8273ffffffffffffffffffffffffffffffffffffffff1661186282610bea565b73ffffffffffffffffffffffffffffffffffffffff16146118b8576040517f08c379a00000000000000000000000000000000000000000000000000000000081526004016118af90613535565b60405180910390fd5b600073ffffffffffffffffffffffffffffffffffffffff168273ffffffffffffffffffffffffffffffffffffffff161415611928576040517f08c379a000000000000000000000000000000000000000000000000000000000815260040161191f906135c7565b60405180910390fd5b611933838383611f5c565b61193e60008261155a565b6001600360008573ffffffffffffffffffffffffffffffffffffffff1673ffffffffffffffffffffffffffffffffffffffff168152602001908152602001600020600082825461198e91906135e7565b925050819055506001600360008473ffffffffffffffffffffffffffffffffffffffff1673ffffffffffffffffffffffffffffffffffffffff16815260200190815260200160002060008282546119e5919061319c565b92505081905550816002600083815260200190815260200160002060006101000a81548173ffffffffffffffffffffffffffffffffffffffff021916908373ffffffffffffffffffffffffffffffffffffffff160217905550808273ffffffffffffffffffffffffffffffffffffffff168473ffffffffffffffffffffffffffffffffffffffff167fddf252ad1be2c89b69c2b068fc378daa952ba7f163c4a11628f55a4df523b3ef60405160405180910390a4611aa4838383611f61565b505050565b611ab1611552565b73ffffffffffffffffffffffffffffffffffffffff16611acf610d9a565b73ffffffffffffffffffffffffffffffffffffffff1614611b25576040517f08c379a0000000000000000000000000000000000000000000000000000000008152600401611b1c90613667565b60405180910390fd5b565b6000600760009054906101000a900473ffffffffffffffffffffffffffffffffffffffff16905081600760006101000a81548173ffffffffffffffffffffffffffffffffffffffff021916908373ffffffffffffffffffffffffffffffffffffffff1602179055508173ffffffffffffffffffffffffffffffffffffffff168173ffffffffffffffffffffffffffffffffffffffff167f8be0079c531659141344cd1fd0a4f28419497f9722a3daafe3b4186f6b6457e060405160405180910390a35050565b8173ffffffffffffffffffffffffffffffffffffffff168373ffffffffffffffffffffffffffffffffffffffff161415611c5c576040517f08c379a0000000000000000000000000000000000000000000000000000000008152600401611c53906136d3565b60405180910390fd5b80600560008573ffffffffffffffffffffffffffffffffffffffff1673ffffffffffffffffffffffffffffffffffffffff16815260200190815260200160002060008473ffffffffffffffffffffffffffffffffffffffff1673ffffffffffffffffffffffffffffffffffffffff16815260200190815260200160002060006101000a81548160ff0219169083151502179055508173ffffffffffffffffffffffffffffffffffffffff168373ffffffffffffffffffffffffffffffffffffffff167f17307eab39ab6107e8899845ad3d59bd9653f200f220920489ca2b5937696c3183604051611d4d919061262f565b60405180910390a3505050565b611d65848484611842565b611d7184848484611f66565b611db0576040517f08c379a0000000000000000000000000000000000000000000000000000000008152600401611da790613765565b60405180910390fd5b50505050565b606060405180602001604052806000815250905090565b6060611dd882611507565b6000611de2611db6565b90506000815111611e025760405180602001604052806000815250611e2d565b80611e0c846120fd565b604051602001611e1d929190613384565b6040516020818303038152906040525b915050919050565b60008151905060006a636f6e736f6c652e6c6f679050602083016000808483855afa5050505050565b60008073ffffffffffffffffffffffffffffffffffffffff166002600084815260200190815260200160002060009054906101000a900473ffffffffffffffffffffffffffffffffffffffff1673ffffffffffffffffffffffffffffffffffffffff1614159050919050565b611ee482826040518060200160405280600081525061225e565b5050565b611ef182611e5e565b611f30576040517f08c379a0000000000000000000000000000000000000000000000000000000008152600401611f27906137f7565b60405180910390fd5b80600660008481526020019081526020016000209080519060200190611f579291906124d8565b505050565b505050565b505050565b6000611f878473ffffffffffffffffffffffffffffffffffffffff166122b9565b156120f0578373ffffffffffffffffffffffffffffffffffffffff1663150b7a02611fb0611552565b8786866040518563ffffffff1660e01b8152600401611fd2949392919061386c565b602060405180830381600087803b158015611fec57600080fd5b505af192505050801561201d57506040513d601f19601f8201168201806040525081019061201a91906138cd565b60015b6120a0573d806000811461204d576040519150601f19603f3d011682016040523d82523d6000602084013e612052565b606091505b50600081511415612098576040517f08c379a000000000000000000000000000000000000000000000000000000000815260040161208f90613765565b60405180910390fd5b805181602001fd5b63150b7a0260e01b7bffffffffffffffffffffffffffffffffffffffffffffffffffffffff1916817bffffffffffffffffffffffffffffffffffffffffffffffffffffffff1916149150506120f5565b600190505b949350505050565b60606000821415612145576040518060400160405280600181526020017f30000000000000000000000000000000000000000000000000000000000000008152509050612259565b600082905060005b60008214612177578080612160906131f2565b915050600a8261217091906138fa565b915061214d565b60008167ffffffffffffffff8111156121935761219261285f565b5b6040519080825280601f01601f1916602001820160405280156121c55781602001600182028036833780820191505090505b5090505b60008514612252576001826121de91906135e7565b9150600a856121ed9190613469565b60306121f9919061319c565b60f81b81838151811061220f5761220e613040565b5b60200101907effffffffffffffffffffffffffffffffffffffffffffffffffffffffffffff1916908160001a905350600a8561224b91906138fa565b94506121c9565b8093505050505b919050565b61226883836122dc565b6122756000848484611f66565b6122b4576040517f08c379a00000000000000000000000000000000000000000000000000000000081526004016122ab90613765565b60405180910390fd5b505050565b6000808273ffffffffffffffffffffffffffffffffffffffff163b119050919050565b600073ffffffffffffffffffffffffffffffffffffffff168273ffffffffffffffffffffffffffffffffffffffff16141561234c576040517f08c379a000000000000000000000000000000000000000000000000000000000815260040161234390613977565b60405180910390fd5b61235581611e5e565b15612395576040517f08c379a000000000000000000000000000000000000000000000000000000000815260040161238c906139e3565b60405180910390fd5b6123a160008383611f5c565b6001600360008473ffffffffffffffffffffffffffffffffffffffff1673ffffffffffffffffffffffffffffffffffffffff16815260200190815260200160002060008282546123f1919061319c565b92505081905550816002600083815260200190815260200160002060006101000a81548173ffffffffffffffffffffffffffffffffffffffff021916908373ffffffffffffffffffffffffffffffffffffffff160217905550808273ffffffffffffffffffffffffffffffffffffffff16600073ffffffffffffffffffffffffffffffffffffffff167fddf252ad1be2c89b69c2b068fc378daa952ba7f163c4a11628f55a4df523b3ef60405160405180910390a46124b260008383611f61565b5050565b6040518060600160405280600390602082028036833780820191505090505090565b8280546124e490612de9565b90600052602060002090601f016020900481019282612506576000855561254d565b82601f1061251f57805160ff191683800117855561254d565b8280016001018555821561254d579182015b8281111561254c578251825591602001919060010190612531565b5b50905061255a919061255e565b5090565b5b8082111561257757600081600090555060010161255f565b5090565b6000604051905090565b600080fd5b600080fd5b60007fffffffff0000000000000000000000000000000000000000000000000000000082169050919050565b6125c48161258f565b81146125cf57600080fd5b50565b6000813590506125e1816125bb565b92915050565b6000602082840312156125fd576125fc612585565b5b600061260b848285016125d2565b91505092915050565b60008115159050919050565b61262981612614565b82525050565b60006020820190506126446000830184612620565b92915050565b600081519050919050565b600082825260208201905092915050565b60005b83811015612684578082015181840152602081019050612669565b83811115612693576000848401525b50505050565b6000601f19601f8301169050919050565b60006126b58261264a565b6126bf8185612655565b93506126cf818560208601612666565b6126d881612699565b840191505092915050565b600060208201905081810360008301526126fd81846126aa565b905092915050565b6000819050919050565b61271881612705565b811461272357600080fd5b50565b6000813590506127358161270f565b92915050565b60006020828403121561275157612750612585565b5b600061275f84828501612726565b91505092915050565b600073ffffffffffffffffffffffffffffffffffffffff82169050919050565b600061279382612768565b9050919050565b6127a381612788565b82525050565b60006020820190506127be600083018461279a565b92915050565b6127cd81612788565b81146127d857600080fd5b50565b6000813590506127ea816127c4565b92915050565b6000806040838503121561280757612806612585565b5b6000612815858286016127db565b925050602061282685828601612726565b9150509250929050565b61283981612705565b82525050565b60006020820190506128546000830184612830565b92915050565b600080fd5b7f4e487b7100000000000000000000000000000000000000000000000000000000600052604160045260246000fd5b61289782612699565b810181811067ffffffffffffffff821117156128b6576128b561285f565b5b80604052505050565b60006128c961257b565b90506128d5828261288e565b919050565b600067ffffffffffffffff8211156128f5576128f461285f565b5b602082029050602081019050919050565b600080fd5b600061291e612919846128da565b6128bf565b9050808382526020820190506020840283018581111561294157612940612906565b5b835b8181101561296a57806129568882612726565b845260208401935050602081019050612943565b5050509392505050565b600082601f8301126129895761298861285a565b5b813561299984826020860161290b565b91505092915050565b600080604083850312156129b9576129b8612585565b5b60006129c785828601612726565b925050602083013567ffffffffffffffff8111156129e8576129e761258a565b5b6129f485828601612974565b9150509250929050565b600080600060608486031215612a1757612a16612585565b5b6000612a25868287016127db565b9350506020612a36868287016127db565b9250506040612a4786828701612726565b9150509250925092565b600060039050919050565b600081905092915050565b6000819050919050565b612a7a81612705565b82525050565b6000612a8c8383612a71565b60208301905092915050565b6000602082019050919050565b612aae81612a51565b612ab88184612a5c565b9250612ac382612a67565b8060005b83811015612af4578151612adb8782612a80565b9650612ae683612a98565b925050600181019050612ac7565b505050505050565b6000606082019050612b116000830184612aa5565b92915050565b600060208284031215612b2d57612b2c612585565b5b6000612b3b848285016127db565b91505092915050565b612b4d81612614565b8114612b5857600080fd5b50565b600081359050612b6a81612b44565b92915050565b60008060408385031215612b8757612b86612585565b5b6000612b95858286016127db565b9250506020612ba685828601612b5b565b9150509250929050565b7f4e487b7100000000000000000000000000000000000000000000000000000000600052602160045260246000fd5b60038110612bf057612bef612bb0565b5b50565b6000819050612c0182612bdf565b919050565b6000612c1182612bf3565b9050919050565b612c2181612c06565b82525050565b6000602082019050612c3c6000830184612c18565b92915050565b600080fd5b600067ffffffffffffffff821115612c6257612c6161285f565b5b612c6b82612699565b9050602081019050919050565b82818337600083830152505050565b6000612c9a612c9584612c47565b6128bf565b905082815260208101848484011115612cb657612cb5612c42565b5b612cc1848285612c78565b509392505050565b600082601f830112612cde57612cdd61285a565b5b8135612cee848260208601612c87565b91505092915050565b60008060008060808587031215612d1157612d10612585565b5b6000612d1f878288016127db565b9450506020612d30878288016127db565b9350506040612d4187828801612726565b925050606085013567ffffffffffffffff811115612d6257612d6161258a565b5b612d6e87828801612cc9565b91505092959194509250565b60008060408385031215612d9157612d90612585565b5b6000612d9f858286016127db565b9250506020612db0858286016127db565b9150509250929050565b7f4e487b7100000000000000000000000000000000000000000000000000000000600052602260045260246000fd5b60006002820490506001821680612e0157607f821691505b60208210811415612e1557612e14612dba565b5b50919050565b7f4552433732313a20617070726f76616c20746f2063757272656e74206f776e6560008201527f7200000000000000000000000000000000000000000000000000000000000000602082015250565b6000612e77602183612655565b9150612e8282612e1b565b604082019050919050565b60006020820190508181036000830152612ea681612e6a565b9050919050565b7f4552433732313a20617070726f76652063616c6c6572206973206e6f7420746f60008201527f6b656e206f776e6572206e6f7220617070726f76656420666f7220616c6c0000602082015250565b6000612f09603e83612655565b9150612f1482612ead565b604082019050919050565b60006020820190508181036000830152612f3881612efc565b9050919050565b6000604082019050612f54600083018561279a565b612f61602083018461279a565b9392505050565b7f4552433732313a2063616c6c6572206973206e6f7420746f6b656e206f776e6560008201527f72206e6f7220617070726f766564000000000000000000000000000000000000602082015250565b6000612fc4602e83612655565b9150612fcf82612f68565b604082019050919050565b60006020820190508181036000830152612ff381612fb7565b9050919050565b600081905092915050565b50565b6000613015600083612ffa565b915061302082613005565b600082019050919050565b600061303682613008565b9150819050919050565b7f4e487b7100000000000000000000000000000000000000000000000000000000600052603260045260246000fd5b7f4552433732313a20696e76616c696420746f6b656e2049440000000000000000600082015250565b60006130a5601883612655565b91506130b08261306f565b602082019050919050565b600060208201905081810360008301526130d481613098565b9050919050565b7f4552433732313a2061646472657373207a65726f206973206e6f74206120766160008201527f6c6964206f776e65720000000000000000000000000000000000000000000000602082015250565b6000613137602983612655565b9150613142826130db565b604082019050919050565b600060208201905081810360008301526131668161312a565b9050919050565b7f4e487b7100000000000000000000000000000000000000000000000000000000600052601160045260246000fd5b60006131a782612705565b91506131b283612705565b9250827fffffffffffffffffffffffffffffffffffffffffffffffffffffffffffffffff038211156131e7576131e661316d565b5b828201905092915050565b60006131fd82612705565b91507fffffffffffffffffffffffffffffffffffffffffffffffffffffffffffffffff8214156132305761322f61316d565b5b600182019050919050565b6000819050919050565b61324e8161323b565b82525050565b600067ffffffffffffffff82169050919050565b61327181613254565b82525050565b600061ffff82169050919050565b61328e81613277565b82525050565b600063ffffffff82169050919050565b6132ad81613294565b82525050565b600060a0820190506132c86000830188613245565b6132d56020830187613268565b6132e26040830186613285565b6132ef60608301856132a4565b6132fc60808301846132a4565b9695505050505050565b6000815190506133158161270f565b92915050565b60006020828403121561333157613330612585565b5b600061333f84828501613306565b91505092915050565b600081905092915050565b600061335e8261264a565b6133688185613348565b9350613378818560208601612666565b80840191505092915050565b60006133908285613353565b915061339c8284613353565b91508190509392505050565b7f4f776e61626c653a206e6577206f776e657220697320746865207a65726f206160008201527f6464726573730000000000000000000000000000000000000000000000000000602082015250565b6000613404602683612655565b915061340f826133a8565b604082019050919050565b60006020820190508181036000830152613433816133f7565b9050919050565b7f4e487b7100000000000000000000000000000000000000000000000000000000600052601260045260246000fd5b600061347482612705565b915061347f83612705565b92508261348f5761348e61343a565b5b828206905092915050565b60006040820190506134af6000830185612c18565b6134bc602083018461279a565b9392505050565b7f4552433732313a207472616e736665722066726f6d20696e636f72726563742060008201527f6f776e6572000000000000000000000000000000000000000000000000000000602082015250565b600061351f602583612655565b915061352a826134c3565b604082019050919050565b6000602082019050818103600083015261354e81613512565b9050919050565b7f4552433732313a207472616e7366657220746f20746865207a65726f2061646460008201527f7265737300000000000000000000000000000000000000000000000000000000602082015250565b60006135b1602483612655565b91506135bc82613555565b604082019050919050565b600060208201905081810360008301526135e0816135a4565b9050919050565b60006135f282612705565b91506135fd83612705565b9250828210156136105761360f61316d565b5b828203905092915050565b7f4f776e61626c653a2063616c6c6572206973206e6f7420746865206f776e6572600082015250565b6000613651602083612655565b915061365c8261361b565b602082019050919050565b6000602082019050818103600083015261368081613644565b9050919050565b7f4552433732313a20617070726f766520746f2063616c6c657200000000000000600082015250565b60006136bd601983612655565b91506136c882613687565b602082019050919050565b600060208201905081810360008301526136ec816136b0565b9050919050565b7f4552433732313a207472616e7366657220746f206e6f6e20455243373231526560008201527f63656976657220696d706c656d656e7465720000000000000000000000000000602082015250565b600061374f603283612655565b915061375a826136f3565b604082019050919050565b6000602082019050818103600083015261377e81613742565b9050919050565b7f45524337323155524953746f726167653a2055524920736574206f66206e6f6e60008201527f6578697374656e7420746f6b656e000000000000000000000000000000000000602082015250565b60006137e1602e83612655565b91506137ec82613785565b604082019050919050565b60006020820190508181036000830152613810816137d4565b9050919050565b600081519050919050565b600082825260208201905092915050565b600061383e82613817565b6138488185613822565b9350613858818560208601612666565b61386181612699565b840191505092915050565b6000608082019050613881600083018761279a565b61388e602083018661279a565b61389b6040830185612830565b81810360608301526138ad8184613833565b905095945050505050565b6000815190506138c7816125bb565b92915050565b6000602082840312156138e3576138e2612585565b5b60006138f1848285016138b8565b91505092915050565b600061390582612705565b915061391083612705565b9250826139205761391f61343a565b5b828204905092915050565b7f4552433732313a206d696e7420746f20746865207a65726f2061646472657373600082015250565b6000613961602083612655565b915061396c8261392b565b602082019050919050565b6000602082019050818103600083015261399081613954565b9050919050565b7f4552433732313a20746f6b656e20616c7265616479206d696e74656400000000600082015250565b60006139cd601c83612655565b91506139d882613997565b602082019050919050565b600060208201905081810360008301526139fc816139c0565b905091905056fea2646970667358221220b97dde1349a2efa7e453c94df5bb541b1679a1722af3898de5bdf72c93dee16164736f6c63430008080033",
  "devdoc": {
    "kind": "dev",
    "methods": {
      "approve(address,uint256)": {
        "details": "See {IERC721-approve}."
      },
      "balanceOf(address)": {
        "details": "See {IERC721-balanceOf}."
      },
      "getApproved(uint256)": {
        "details": "See {IERC721-getApproved}."
      },
      "isApprovedForAll(address,address)": {
        "details": "See {IERC721-isApprovedForAll}."
      },
      "name()": {
        "details": "See {IERC721Metadata-name}."
      },
      "owner()": {
        "details": "Returns the address of the current owner."
      },
      "ownerOf(uint256)": {
        "details": "See {IERC721-ownerOf}."
      },
      "renounceOwnership()": {
        "details": "Leaves the contract without owner. It will not be possible to call `onlyOwner` functions anymore. Can only be called by the current owner. NOTE: Renouncing ownership will leave the contract without an owner, thereby removing any functionality that is only available to the owner."
      },
      "safeTransferFrom(address,address,uint256)": {
        "details": "See {IERC721-safeTransferFrom}."
      },
      "safeTransferFrom(address,address,uint256,bytes)": {
        "details": "See {IERC721-safeTransferFrom}."
      },
      "setApprovalForAll(address,bool)": {
        "details": "See {IERC721-setApprovalForAll}."
      },
      "supportsInterface(bytes4)": {
        "details": "See {IERC165-supportsInterface}."
      },
      "symbol()": {
        "details": "See {IERC721Metadata-symbol}."
      },
      "tokenURI(uint256)": {
        "details": "See {IERC721Metadata-tokenURI}."
      },
      "transferFrom(address,address,uint256)": {
        "details": "See {IERC721-transferFrom}."
      },
      "transferOwnership(address)": {
        "details": "Transfers ownership of the contract to a new account (`newOwner`). Can only be called by the current owner."
      }
    },
    "version": 1
  },
  "userdoc": {
    "kind": "user",
    "methods": {},
    "version": 1
  },
  "storageLayout": {
    "storage": [
      {
        "astId": 292,
        "contract": "contracts/RandomIpfsNft.sol:RandomIpfsNft",
        "label": "_name",
        "offset": 0,
        "slot": "0",
        "type": "t_string_storage"
      },
      {
        "astId": 294,
        "contract": "contracts/RandomIpfsNft.sol:RandomIpfsNft",
        "label": "_symbol",
        "offset": 0,
        "slot": "1",
        "type": "t_string_storage"
      },
      {
        "astId": 298,
        "contract": "contracts/RandomIpfsNft.sol:RandomIpfsNft",
        "label": "_owners",
        "offset": 0,
        "slot": "2",
        "type": "t_mapping(t_uint256,t_address)"
      },
      {
        "astId": 302,
        "contract": "contracts/RandomIpfsNft.sol:RandomIpfsNft",
        "label": "_balances",
        "offset": 0,
        "slot": "3",
        "type": "t_mapping(t_address,t_uint256)"
      },
      {
        "astId": 306,
        "contract": "contracts/RandomIpfsNft.sol:RandomIpfsNft",
        "label": "_tokenApprovals",
        "offset": 0,
        "slot": "4",
        "type": "t_mapping(t_uint256,t_address)"
      },
      {
        "astId": 312,
        "contract": "contracts/RandomIpfsNft.sol:RandomIpfsNft",
        "label": "_operatorApprovals",
        "offset": 0,
        "slot": "5",
        "type": "t_mapping(t_address,t_mapping(t_address,t_bool))"
      },
      {
        "astId": 1280,
        "contract": "contracts/RandomIpfsNft.sol:RandomIpfsNft",
        "label": "_tokenURIs",
        "offset": 0,
        "slot": "6",
        "type": "t_mapping(t_uint256,t_string_storage)"
      },
      {
        "astId": 161,
        "contract": "contracts/RandomIpfsNft.sol:RandomIpfsNft",
        "label": "_owner",
        "offset": 0,
        "slot": "7",
        "type": "t_address"
      },
      {
        "astId": 2029,
        "contract": "contracts/RandomIpfsNft.sol:RandomIpfsNft",
        "label": "i_subscriptionId",
        "offset": 20,
        "slot": "7",
        "type": "t_uint64"
      },
      {
        "astId": 2042,
        "contract": "contracts/RandomIpfsNft.sol:RandomIpfsNft",
        "label": "s_goblinTokenUris",
        "offset": 0,
        "slot": "8",
        "type": "t_array(t_string_storage)dyn_storage"
      },
      {
        "astId": 2046,
        "contract": "contracts/RandomIpfsNft.sol:RandomIpfsNft",
        "label": "s_initialized",
        "offset": 0,
        "slot": "9",
        "type": "t_bool"
      },
      {
        "astId": 2050,
        "contract": "contracts/RandomIpfsNft.sol:RandomIpfsNft",
        "label": "s_requestIdToSender",
        "offset": 0,
        "slot": "10",
        "type": "t_mapping(t_uint256,t_address)"
      },
      {
        "astId": 2052,
        "contract": "contracts/RandomIpfsNft.sol:RandomIpfsNft",
        "label": "s_tokenCounter",
        "offset": 0,
        "slot": "11",
        "type": "t_uint256"
      }
    ],
    "types": {
      "t_address": {
        "encoding": "inplace",
        "label": "address",
        "numberOfBytes": "20"
      },
      "t_array(t_string_storage)dyn_storage": {
        "base": "t_string_storage",
        "encoding": "dynamic_array",
        "label": "string[]",
        "numberOfBytes": "32"
      },
      "t_bool": {
        "encoding": "inplace",
        "label": "bool",
        "numberOfBytes": "1"
      },
      "t_mapping(t_address,t_bool)": {
        "encoding": "mapping",
        "key": "t_address",
        "label": "mapping(address => bool)",
        "numberOfBytes": "32",
        "value": "t_bool"
      },
      "t_mapping(t_address,t_mapping(t_address,t_bool))": {
        "encoding": "mapping",
        "key": "t_address",
        "label": "mapping(address => mapping(address => bool))",
        "numberOfBytes": "32",
        "value": "t_mapping(t_address,t_bool)"
      },
      "t_mapping(t_address,t_uint256)": {
        "encoding": "mapping",
        "key": "t_address",
        "label": "mapping(address => uint256)",
        "numberOfBytes": "32",
        "value": "t_uint256"
      },
      "t_mapping(t_uint256,t_address)": {
        "encoding": "mapping",
        "key": "t_uint256",
        "label": "mapping(uint256 => address)",
        "numberOfBytes": "32",
        "value": "t_address"
      },
      "t_mapping(t_uint256,t_string_storage)": {
        "encoding": "mapping",
        "key": "t_uint256",
        "label": "mapping(uint256 => string)",
        "numberOfBytes": "32",
        "value": "t_string_storage"
      },
      "t_string_storage": {
        "encoding": "bytes",
        "label": "string",
        "numberOfBytes": "32"
      },
      "t_uint256": {
        "encoding": "inplace",
        "label": "uint256",
        "numberOfBytes": "32"
      },
      "t_uint64": {
        "encoding": "inplace",
        "label": "uint64",
        "numberOfBytes": "8"
      }
    }
  }
}