{
  "address": "0xb01cFc42dE20eDd8c3b937465D134a1d80c64078",
  "abi": [
    {
      "inputs": [
        {
          "internalType": "address",
          "name": "vrfCoordinatorV2",
          "type": "address"
        },
        {
          "internalType": "uint64",
          "name": "subscriptionId",
          "type": "uint64"
        },
        {
          "internalType": "bytes32",
          "name": "gasLane",
          "type": "bytes32"
        },
        {
          "internalType": "uint32",
          "name": "callbackGasLimit",
          "type": "uint32"
        },
        {
          "internalType": "string[3]",
          "name": "goblinTokenUris",
          "type": "string[3]"
        },
        {
          "internalType": "uint256",
          "name": "mintFee",
          "type": "uint256"
        }
      ],
      "stateMutability": "nonpayable",
      "type": "constructor"
    },
    {
      "inputs": [],
      "name": "AlreadyInitialized",
      "type": "error"
    },
    {
      "inputs": [
        {
          "internalType": "address",
          "name": "have",
          "type": "address"
        },
        {
          "internalType": "address",
          "name": "want",
          "type": "address"
        }
      ],
      "name": "OnlyCoordinatorCanFulfill",
      "type": "error"
    },
    {
      "inputs": [],
      "name": "RandomIpfsNft__NeedMoreETHSent",
      "type": "error"
    },
    {
      "inputs": [],
      "name": "RandomIpfsNft__RangeOutOfBounds",
      "type": "error"
    },
    {
      "inputs": [],
      "name": "RandomIpfsNft__TransferFailed",
      "type": "error"
    },
    {
      "anonymous": false,
      "inputs": [
        {
          "indexed": true,
          "internalType": "address",
          "name": "owner",
          "type": "address"
        },
        {
          "indexed": true,
          "internalType": "address",
          "name": "approved",
          "type": "address"
        },
        {
          "indexed": true,
          "internalType": "uint256",
          "name": "tokenId",
          "type": "uint256"
        }
      ],
      "name": "Approval",
      "type": "event"
    },
    {
      "anonymous": false,
      "inputs": [
        {
          "indexed": true,
          "internalType": "address",
          "name": "owner",
          "type": "address"
        },
        {
          "indexed": true,
          "internalType": "address",
          "name": "operator",
          "type": "address"
        },
        {
          "indexed": false,
          "internalType": "bool",
          "name": "approved",
          "type": "bool"
        }
      ],
      "name": "ApprovalForAll",
      "type": "event"
    },
    {
      "anonymous": false,
      "inputs": [
        {
          "indexed": false,
          "internalType": "enum RandomIpfsNft.Breed",
          "name": "goblinBreed",
          "type": "uint8"
        },
        {
          "indexed": false,
          "internalType": "address",
          "name": "minter",
          "type": "address"
        }
      ],
      "name": "NFTMinted",
      "type": "event"
    },
    {
      "anonymous": false,
      "inputs": [
        {
          "indexed": true,
          "internalType": "uint256",
          "name": "requestId",
          "type": "uint256"
        },
        {
          "indexed": false,
          "internalType": "address",
          "name": "requester",
          "type": "address"
        }
      ],
      "name": "NftRequested",
      "type": "event"
    },
    {
      "anonymous": false,
      "inputs": [
        {
          "indexed": true,
          "internalType": "address",
          "name": "previousOwner",
          "type": "address"
        },
        {
          "indexed": true,
          "internalType": "address",
          "name": "newOwner",
          "type": "address"
        }
      ],
      "name": "OwnershipTransferred",
      "type": "event"
    },
    {
      "anonymous": false,
      "inputs": [
        {
          "indexed": true,
          "internalType": "address",
          "name": "from",
          "type": "address"
        },
        {
          "indexed": true,
          "internalType": "address",
          "name": "to",
          "type": "address"
        },
        {
          "indexed": true,
          "internalType": "uint256",
          "name": "tokenId",
          "type": "uint256"
        }
      ],
      "name": "Transfer",
      "type": "event"
    },
    {
      "inputs": [
        {
          "internalType": "address",
          "name": "to",
          "type": "address"
        },
        {
          "internalType": "uint256",
          "name": "tokenId",
          "type": "uint256"
        }
      ],
      "name": "approve",
      "outputs": [],
      "stateMutability": "nonpayable",
      "type": "function"
    },
    {
      "inputs": [
        {
          "internalType": "address",
          "name": "owner",
          "type": "address"
        }
      ],
      "name": "balanceOf",
      "outputs": [
        {
          "internalType": "uint256",
          "name": "",
          "type": "uint256"
        }
      ],
      "stateMutability": "view",
      "type": "function"
    },
    {
      "inputs": [
        {
          "internalType": "uint256",
          "name": "tokenId",
          "type": "uint256"
        }
      ],
      "name": "getApproved",
      "outputs": [
        {
          "internalType": "address",
          "name": "",
          "type": "address"
        }
      ],
      "stateMutability": "view",
      "type": "function"
    },
    {
      "inputs": [
        {
          "internalType": "uint256",
          "name": "moddedRng",
          "type": "uint256"
        }
      ],
      "name": "getBreedFromModdedRng",
      "outputs": [
        {
          "internalType": "enum RandomIpfsNft.Breed",
          "name": "",
          "type": "uint8"
        }
      ],
      "stateMutability": "pure",
      "type": "function"
    },
    {
      "inputs": [],
      "name": "getChanceArray",
      "outputs": [
        {
          "internalType": "uint256[3]",
          "name": "",
          "type": "uint256[3]"
        }
      ],
      "stateMutability": "pure",
      "type": "function"
    },
    {
      "inputs": [
        {
          "internalType": "uint256",
          "name": "index",
          "type": "uint256"
        }
      ],
      "name": "getGoblinTokenUris",
      "outputs": [
        {
          "internalType": "string",
          "name": "",
          "type": "string"
        }
      ],
      "stateMutability": "view",
      "type": "function"
    },
    {
      "inputs": [],
      "name": "getMintFee",
      "outputs": [
        {
          "internalType": "uint256",
          "name": "",
          "type": "uint256"
        }
      ],
      "stateMutability": "view",
      "type": "function"
    },
    {
      "inputs": [],
      "name": "getTokenCounter",
      "outputs": [
        {
          "internalType": "uint256",
          "name": "",
          "type": "uint256"
        }
      ],
      "stateMutability": "view",
      "type": "function"
    },
    {
      "inputs": [
        {
          "internalType": "address",
          "name": "owner",
          "type": "address"
        },
        {
          "internalType": "address",
          "name": "operator",
          "type": "address"
        }
      ],
      "name": "isApprovedForAll",
      "outputs": [
        {
          "internalType": "bool",
          "name": "",
          "type": "bool"
        }
      ],
      "stateMutability": "view",
      "type": "function"
    },
    {
      "inputs": [],
      "name": "name",
      "outputs": [
        {
          "internalType": "string",
          "name": "",
          "type": "string"
        }
      ],
      "stateMutability": "view",
      "type": "function"
    },
    {
      "inputs": [],
      "name": "owner",
      "outputs": [
        {
          "internalType": "address",
          "name": "",
          "type": "address"
        }
      ],
      "stateMutability": "view",
      "type": "function"
    },
    {
      "inputs": [
        {
          "internalType": "uint256",
          "name": "tokenId",
          "type": "uint256"
        }
      ],
      "name": "ownerOf",
      "outputs": [
        {
          "internalType": "address",
          "name": "",
          "type": "address"
        }
      ],
      "stateMutability": "view",
      "type": "function"
    },
    {
      "inputs": [
        {
          "internalType": "uint256",
          "name": "requestId",
          "type": "uint256"
        },
        {
          "internalType": "uint256[]",
          "name": "randomWords",
          "type": "uint256[]"
        }
      ],
      "name": "rawFulfillRandomWords",
      "outputs": [],
      "stateMutability": "nonpayable",
      "type": "function"
    },
    {
      "inputs": [],
      "name": "renounceOwnership",
      "outputs": [],
      "stateMutability": "nonpayable",
      "type": "function"
    },
    {
      "inputs": [],
      "name": "requestNft",
      "outputs": [
        {
          "internalType": "uint256",
          "name": "requestId",
          "type": "uint256"
        }
      ],
      "stateMutability": "payable",
      "type": "function"
    },
    {
      "inputs": [
        {
          "internalType": "uint256",
          "name": "",
          "type": "uint256"
        }
      ],
      "name": "s_requestIdToSender",
      "outputs": [
        {
          "internalType": "address",
          "name": "",
          "type": "address"
        }
      ],
      "stateMutability": "view",
      "type": "function"
    },
    {
      "inputs": [],
      "name": "s_tokenCounter",
      "outputs": [
        {
          "internalType": "uint256",
          "name": "",
          "type": "uint256"
        }
      ],
      "stateMutability": "view",
      "type": "function"
    },
    {
      "inputs": [
        {
          "internalType": "address",
          "name": "from",
          "type": "address"
        },
        {
          "internalType": "address",
          "name": "to",
          "type": "address"
        },
        {
          "internalType": "uint256",
          "name": "tokenId",
          "type": "uint256"
        }
      ],
      "name": "safeTransferFrom",
      "outputs": [],
      "stateMutability": "nonpayable",
      "type": "function"
    },
    {
      "inputs": [
        {
          "internalType": "address",
          "name": "from",
          "type": "address"
        },
        {
          "internalType": "address",
          "name": "to",
          "type": "address"
        },
        {
          "internalType": "uint256",
          "name": "tokenId",
          "type": "uint256"
        },
        {
          "internalType": "bytes",
          "name": "data",
          "type": "bytes"
        }
      ],
      "name": "safeTransferFrom",
      "outputs": [],
      "stateMutability": "nonpayable",
      "type": "function"
    },
    {
      "inputs": [
        {
          "internalType": "address",
          "name": "operator",
          "type": "address"
        },
        {
          "internalType": "bool",
          "name": "approved",
          "type": "bool"
        }
      ],
      "name": "setApprovalForAll",
      "outputs": [],
      "stateMutability": "nonpayable",
      "type": "function"
    },
    {
      "inputs": [
        {
          "internalType": "bytes4",
          "name": "interfaceId",
          "type": "bytes4"
        }
      ],
      "name": "supportsInterface",
      "outputs": [
        {
          "internalType": "bool",
          "name": "",
          "type": "bool"
        }
      ],
      "stateMutability": "view",
      "type": "function"
    },
    {
      "inputs": [],
      "name": "symbol",
      "outputs": [
        {
          "internalType": "string",
          "name": "",
          "type": "string"
        }
      ],
      "stateMutability": "view",
      "type": "function"
    },
    {
      "inputs": [
        {
          "internalType": "uint256",
          "name": "tokenId",
          "type": "uint256"
        }
      ],
      "name": "tokenURI",
      "outputs": [
        {
          "internalType": "string",
          "name": "",
          "type": "string"
        }
      ],
      "stateMutability": "view",
      "type": "function"
    },
    {
      "inputs": [
        {
          "internalType": "address",
          "name": "from",
          "type": "address"
        },
        {
          "internalType": "address",
          "name": "to",
          "type": "address"
        },
        {
          "internalType": "uint256",
          "name": "tokenId",
          "type": "uint256"
        }
      ],
      "name": "transferFrom",
      "outputs": [],
      "stateMutability": "nonpayable",
      "type": "function"
    },
    {
      "inputs": [
        {
          "internalType": "address",
          "name": "newOwner",
          "type": "address"
        }
      ],
      "name": "transferOwnership",
      "outputs": [],
      "stateMutability": "nonpayable",
      "type": "function"
    },
    {
      "inputs": [],
      "name": "withdraw",
      "outputs": [],
      "stateMutability": "nonpayable",
      "type": "function"
    }
  ],
  "transactionHash": "0xc132c5ab633a10361efc7ac709678b23327c25a0c6e2684635326eef6500b3f1",
  "args": [
    "0x6168499c0cffcacd319c818142124b7a15e857ab",
    "8969",
    "0xd89b2bf150e3b9e13446986e571fb9cab24b13cea0a43ea20a6049a85cc807cc",
    "500000",
    [
      "ipfs://QmQFMAHeeunj2vFxVJYPPkq1oou9tRFzf3Mhpz8ePUcZrY",
      "ipfs://QmQQ2J37xxQPR1VWVb1V3Mb1jnd3t8EeGBnuJV4CYGeCZt",
      "ipfs://QmPjEcStadNEoiaB3d36zVNe6M2gk8H1NXigK5wU2wU74J"
    ],
    "10000000000000000"
  ],
  "numDeployments": 2,
  "solcInputHash": "4b4a9eabdd071fa85663627f783df13c",
  "bytecode": "0x6101206040523480156200001257600080fd5b506040516200437e3803806200437e83398181016040528101906200003891906200088b565b6040518060400160405280600f81526020017f52616e646f6d2049504653204e465400000000000000000000000000000000008152506040518060400160405280600381526020017f52494e0000000000000000000000000000000000000000000000000000000000815250878073ffffffffffffffffffffffffffffffffffffffff1660808173ffffffffffffffffffffffffffffffffffffffff1660601b81525050508160009080519060200190620000f59291906200031e565b5080600190805190602001906200010e9291906200031e565b5050506200013162000125620001d660201b60201c565b620001de60201b60201c565b8573ffffffffffffffffffffffffffffffffffffffff1660a08173ffffffffffffffffffffffffffffffffffffffff1660601b8152505084600760146101000a81548167ffffffffffffffff021916908367ffffffffffffffff1602179055508360c081815250508263ffffffff1660e08163ffffffff1660e01b81525050806101008181525050620001ca82620002a460201b60201c565b505050505050620009ab565b600033905090565b6000600760009054906101000a900473ffffffffffffffffffffffffffffffffffffffff16905081600760006101000a81548173ffffffffffffffffffffffffffffffffffffffff021916908373ffffffffffffffffffffffffffffffffffffffff1602179055508173ffffffffffffffffffffffffffffffffffffffff168173ffffffffffffffffffffffffffffffffffffffff167f8be0079c531659141344cd1fd0a4f28419497f9722a3daafe3b4186f6b6457e060405160405180910390a35050565b600960009054906101000a900460ff1615620002ec576040517f0dc149f000000000000000000000000000000000000000000000000000000000815260040160405180910390fd5b806008906003620002ff929190620003af565b506001600960006101000a81548160ff02191690831515021790555050565b8280546200032c9062000975565b90600052602060002090601f0160209004810192826200035057600085556200039c565b82601f106200036b57805160ff19168380011785556200039c565b828001600101855582156200039c579182015b828111156200039b5782518255916020019190600101906200037e565b5b509050620003ab919062000416565b5090565b82805482825590600052602060002090810192821562000403579160200282015b8281111562000402578251829080519060200190620003f19291906200031e565b5091602001919060010190620003d0565b5b50905062000412919062000435565b5090565b5b808211156200043157600081600090555060010162000417565b5090565b5b808211156200045957600081816200044f91906200045d565b5060010162000436565b5090565b5080546200046b9062000975565b6000825580601f106200047f5750620004a0565b601f0160209004906000526020600020908101906200049f919062000416565b5b50565b6000604051905090565b600080fd5b600080fd5b600073ffffffffffffffffffffffffffffffffffffffff82169050919050565b6000620004e482620004b7565b9050919050565b620004f681620004d7565b81146200050257600080fd5b50565b6000815190506200051681620004eb565b92915050565b600067ffffffffffffffff82169050919050565b6200053b816200051c565b81146200054757600080fd5b50565b6000815190506200055b8162000530565b92915050565b6000819050919050565b620005768162000561565b81146200058257600080fd5b50565b60008151905062000596816200056b565b92915050565b600063ffffffff82169050919050565b620005b7816200059c565b8114620005c357600080fd5b50565b600081519050620005d781620005ac565b92915050565b600080fd5b6000601f19601f8301169050919050565b7f4e487b7100000000000000000000000000000000000000000000000000000000600052604160045260246000fd5b6200062d82620005e2565b810181811067ffffffffffffffff821117156200064f576200064e620005f3565b5b80604052505050565b600062000664620004a3565b905062000672828262000622565b919050565b600067ffffffffffffffff821115620006955762000694620005f3565b5b602082029050919050565b600080fd5b600080fd5b600067ffffffffffffffff821115620006c857620006c7620005f3565b5b620006d382620005e2565b9050602081019050919050565b60005b8381101562000700578082015181840152602081019050620006e3565b8381111562000710576000848401525b50505050565b60006200072d6200072784620006aa565b62000658565b9050828152602081018484840111156200074c576200074b620006a5565b5b62000759848285620006e0565b509392505050565b600082601f830112620007795762000778620005dd565b5b81516200078b84826020860162000716565b91505092915050565b6000620007ab620007a58462000677565b62000658565b90508060208402830185811115620007c857620007c7620006a0565b5b835b818110156200081657805167ffffffffffffffff811115620007f157620007f0620005dd565b5b80860162000800898262000761565b85526020850194505050602081019050620007ca565b5050509392505050565b600082601f830112620008385762000837620005dd565b5b60036200084784828562000794565b91505092915050565b6000819050919050565b620008658162000850565b81146200087157600080fd5b50565b60008151905062000885816200085a565b92915050565b60008060008060008060c08789031215620008ab57620008aa620004ad565b5b6000620008bb89828a0162000505565b9650506020620008ce89828a016200054a565b9550506040620008e189828a0162000585565b9450506060620008f489828a01620005c6565b935050608087015167ffffffffffffffff811115620009185762000917620004b2565b5b6200092689828a0162000820565b92505060a06200093989828a0162000874565b9150509295509295509295565b7f4e487b7100000000000000000000000000000000000000000000000000000000600052602260045260246000fd5b600060028204905060018216806200098e57607f821691505b60208210811415620009a557620009a462000946565b5b50919050565b60805160601c60a05160601c60c05160e05160e01c6101005161397762000a0760003960008181610d760152610f85015260006110550152600061101b01526000610fdf01526000818161091d015261097101526139776000f3fe6080604052600436106101815760003560e01c806370a08231116100d1578063a36f573b1161008a578063b88d4fde11610064578063b88d4fde14610577578063c87b56dd146105a0578063e985e9c5146105dd578063f2fde38b1461061a57610181565b8063a36f573b146104df578063a51cccf31461051c578063aa1524911461055957610181565b806370a08231146103e1578063715018a61461041e5780637a5caab3146104355780638da5cb5b1461046057806395d89b411461048b578063a22cb465146104b657610181565b806323b872dd1161013e57806342842e0e1161011857806342842e0e146103255780635dacf5f41461034e5780636352211e146103795780636e02007d146103b657610181565b806323b872dd146102a85780633ccfd60b146102d157806342419c05146102e857610181565b806301ffc9a71461018657806306fdde03146101c3578063081812fc146101ee578063095ea7b31461022b5780630b21a83b146102545780631fe543e31461027f575b600080fd5b34801561019257600080fd5b506101ad60048036038101906101a89190612525565b610643565b6040516101ba919061256d565b60405180910390f35b3480156101cf57600080fd5b506101d8610725565b6040516101e59190612621565b60405180910390f35b3480156101fa57600080fd5b5061021560048036038101906102109190612679565b6107b7565b60405161022291906126e7565b60405180910390f35b34801561023757600080fd5b50610252600480360381019061024d919061272e565b6107fd565b005b34801561026057600080fd5b50610269610915565b604051610276919061277d565b60405180910390f35b34801561028b57600080fd5b506102a660048036038101906102a191906128e0565b61091b565b005b3480156102b457600080fd5b506102cf60048036038101906102ca919061293c565b6109db565b005b3480156102dd57600080fd5b506102e6610a3b565b005b3480156102f457600080fd5b5061030f600480360381019061030a9190612679565b610aef565b60405161031c9190612621565b60405180910390f35b34801561033157600080fd5b5061034c6004803603810190610347919061293c565b610b9f565b005b34801561035a57600080fd5b50610363610bbf565b6040516103709190612a3a565b60405180910390f35b34801561038557600080fd5b506103a0600480360381019061039b9190612679565b610bea565b6040516103ad91906126e7565b60405180910390f35b3480156103c257600080fd5b506103cb610c9c565b6040516103d8919061277d565b60405180910390f35b3480156103ed57600080fd5b5061040860048036038101906104039190612a55565b610ca6565b604051610415919061277d565b60405180910390f35b34801561042a57600080fd5b50610433610d5e565b005b34801561044157600080fd5b5061044a610d72565b604051610457919061277d565b60405180910390f35b34801561046c57600080fd5b50610475610d9a565b60405161048291906126e7565b60405180910390f35b34801561049757600080fd5b506104a0610dc4565b6040516104ad9190612621565b60405180910390f35b3480156104c257600080fd5b506104dd60048036038101906104d89190612aae565b610e56565b005b3480156104eb57600080fd5b5061050660048036038101906105019190612679565b610e6c565b60405161051391906126e7565b60405180910390f35b34801561052857600080fd5b50610543600480360381019061053e9190612679565b610e9f565b6040516105509190612b65565b60405180910390f35b610561610f81565b60405161056e919061277d565b60405180910390f35b34801561058357600080fd5b5061059e60048036038101906105999190612c35565b611177565b005b3480156105ac57600080fd5b506105c760048036038101906105c29190612679565b6111d9565b6040516105d49190612621565b60405180910390f35b3480156105e957600080fd5b5061060460048036038101906105ff9190612cb8565b6112ec565b604051610611919061256d565b60405180910390f35b34801561062657600080fd5b50610641600480360381019061063c9190612a55565b611380565b005b60007f80ac58cd000000000000000000000000000000000000000000000000000000007bffffffffffffffffffffffffffffffffffffffffffffffffffffffff1916827bffffffffffffffffffffffffffffffffffffffffffffffffffffffff1916148061070e57507f5b5e139f000000000000000000000000000000000000000000000000000000007bffffffffffffffffffffffffffffffffffffffffffffffffffffffff1916827bffffffffffffffffffffffffffffffffffffffffffffffffffffffff1916145b8061071e575061071d82611404565b5b9050919050565b60606000805461073490612d27565b80601f016020809104026020016040519081016040528092919081815260200182805461076090612d27565b80156107ad5780601f10610782576101008083540402835291602001916107ad565b820191906000526020600020905b81548152906001019060200180831161079057829003601f168201915b5050505050905090565b60006107c28261146e565b6004600083815260200190815260200160002060009054906101000a900473ffffffffffffffffffffffffffffffffffffffff169050919050565b600061080882610bea565b90508073ffffffffffffffffffffffffffffffffffffffff168373ffffffffffffffffffffffffffffffffffffffff161415610879576040517f08c379a000000000000000000000000000000000000000000000000000000000815260040161087090612dcb565b60405180910390fd5b8073ffffffffffffffffffffffffffffffffffffffff166108986114b9565b73ffffffffffffffffffffffffffffffffffffffff1614806108c757506108c6816108c16114b9565b6112ec565b5b610906576040517f08c379a00000000000000000000000000000000000000000000000000000000081526004016108fd90612e5d565b60405180910390fd5b61091083836114c1565b505050565b600b5481565b7f000000000000000000000000000000000000000000000000000000000000000073ffffffffffffffffffffffffffffffffffffffff163373ffffffffffffffffffffffffffffffffffffffff16146109cd57337f00000000000000000000000000000000000000000000000000000000000000006040517f1cf993f40000000000000000000000000000000000000000000000000000000081526004016109c4929190612e7d565b60405180910390fd5b6109d7828261157a565b5050565b6109ec6109e66114b9565b82611714565b610a2b576040517f08c379a0000000000000000000000000000000000000000000000000000000008152600401610a2290612f18565b60405180910390fd5b610a368383836117a9565b505050565b610a43611a10565b600047905060003373ffffffffffffffffffffffffffffffffffffffff1682604051610a6e90612f69565b60006040518083038185875af1925050503d8060008114610aab576040519150601f19603f3d011682016040523d82523d6000602084013e610ab0565b606091505b5050905080610aeb576040517fca7e25b700000000000000000000000000000000000000000000000000000000815260040160405180910390fd5b5050565b606060088281548110610b0557610b04612f7e565b5b906000526020600020018054610b1a90612d27565b80601f0160208091040260200160405190810160405280929190818152602001828054610b4690612d27565b8015610b935780601f10610b6857610100808354040283529160200191610b93565b820191906000526020600020905b815481529060010190602001808311610b7657829003601f168201915b50505050509050919050565b610bba83838360405180602001604052806000815250611177565b505050565b610bc76123f4565b6040518060600160405280600a8152602001601e81526020016064815250905090565b6000806002600084815260200190815260200160002060009054906101000a900473ffffffffffffffffffffffffffffffffffffffff169050600073ffffffffffffffffffffffffffffffffffffffff168173ffffffffffffffffffffffffffffffffffffffff161415610c93576040517f08c379a0000000000000000000000000000000000000000000000000000000008152600401610c8a90612ff9565b60405180910390fd5b80915050919050565b6000600b54905090565b60008073ffffffffffffffffffffffffffffffffffffffff168273ffffffffffffffffffffffffffffffffffffffff161415610d17576040517f08c379a0000000000000000000000000000000000000000000000000000000008152600401610d0e9061308b565b60405180910390fd5b600360008373ffffffffffffffffffffffffffffffffffffffff1673ffffffffffffffffffffffffffffffffffffffff168152602001908152602001600020549050919050565b610d66611a10565b610d706000611a8e565b565b60007f0000000000000000000000000000000000000000000000000000000000000000905090565b6000600760009054906101000a900473ffffffffffffffffffffffffffffffffffffffff16905090565b606060018054610dd390612d27565b80601f0160208091040260200160405190810160405280929190818152602001828054610dff90612d27565b8015610e4c5780601f10610e2157610100808354040283529160200191610e4c565b820191906000526020600020905b815481529060010190602001808311610e2f57829003601f168201915b5050505050905090565b610e68610e616114b9565b8383611b54565b5050565b600a6020528060005260406000206000915054906101000a900473ffffffffffffffffffffffffffffffffffffffff1681565b600080600090506000610eb0610bbf565b905060005b6003811015610f4957828510158015610eef5750818160038110610edc57610edb612f7e565b5b602002015183610eec91906130da565b85105b15610f1157806002811115610f0757610f06612aee565b5b9350505050610f7c565b818160038110610f2457610f23612f7e565b5b602002015183610f3491906130da565b92508080610f4190613130565b915050610eb5565b506040517f12806c9d00000000000000000000000000000000000000000000000000000000815260040160405180910390fd5b919050565b60007f0000000000000000000000000000000000000000000000000000000000000000341015610fdd576040517fb90f491000000000000000000000000000000000000000000000000000000000815260040160405180910390fd5b7f000000000000000000000000000000000000000000000000000000000000000073ffffffffffffffffffffffffffffffffffffffff16635d3b1d307f0000000000000000000000000000000000000000000000000000000000000000600760149054906101000a900467ffffffffffffffff1660037f000000000000000000000000000000000000000000000000000000000000000060016040518663ffffffff1660e01b81526004016110969594939291906131f1565b602060405180830381600087803b1580156110b057600080fd5b505af11580156110c4573d6000803e3d6000fd5b505050506040513d601f19601f820116820180604052508101906110e89190613259565b905033600a600083815260200190815260200160002060006101000a81548173ffffffffffffffffffffffffffffffffffffffff021916908373ffffffffffffffffffffffffffffffffffffffff160217905550807ff873236e6cc0ecc5be1a9a35c95ee5b8d1ac4cc7bfef0cc5060391d6cc98e26b3360405161116c91906126e7565b60405180910390a290565b6111886111826114b9565b83611714565b6111c7576040517f08c379a00000000000000000000000000000000000000000000000000000000081526004016111be90612f18565b60405180910390fd5b6111d384848484611cc1565b50505050565b60606111e48261146e565b600060066000848152602001908152602001600020805461120490612d27565b80601f016020809104026020016040519081016040528092919081815260200182805461123090612d27565b801561127d5780601f106112525761010080835404028352916020019161127d565b820191906000526020600020905b81548152906001019060200180831161126057829003601f168201915b50505050509050600061128e611d1d565b90506000815114156112a45781925050506112e7565b6000825111156112d95780826040516020016112c19291906132c2565b604051602081830303815290604052925050506112e7565b6112e284611d34565b925050505b919050565b6000600560008473ffffffffffffffffffffffffffffffffffffffff1673ffffffffffffffffffffffffffffffffffffffff16815260200190815260200160002060008373ffffffffffffffffffffffffffffffffffffffff1673ffffffffffffffffffffffffffffffffffffffff16815260200190815260200160002060009054906101000a900460ff16905092915050565b611388611a10565b600073ffffffffffffffffffffffffffffffffffffffff168173ffffffffffffffffffffffffffffffffffffffff1614156113f8576040517f08c379a00000000000000000000000000000000000000000000000000000000081526004016113ef90613358565b60405180910390fd5b61140181611a8e565b50565b60007f01ffc9a7000000000000000000000000000000000000000000000000000000007bffffffffffffffffffffffffffffffffffffffffffffffffffffffff1916827bffffffffffffffffffffffffffffffffffffffffffffffffffffffff1916149050919050565b61147781611d9c565b6114b6576040517f08c379a00000000000000000000000000000000000000000000000000000000081526004016114ad90612ff9565b60405180910390fd5b50565b600033905090565b816004600083815260200190815260200160002060006101000a81548173ffffffffffffffffffffffffffffffffffffffff021916908373ffffffffffffffffffffffffffffffffffffffff160217905550808273ffffffffffffffffffffffffffffffffffffffff1661153483610bea565b73ffffffffffffffffffffffffffffffffffffffff167f8c5be1e5ebec7d5bd14f71427d1e84f3dd0314c0f7b2291e5b200ac8c7c3b92560405160405180910390a45050565b6000600a600084815260200190815260200160002060009054906101000a900473ffffffffffffffffffffffffffffffffffffffff1690506000600b54905060006064846000815181106115d1576115d0612f7e565b5b60200260200101516115e391906133a7565b905060006115f082610e9f565b90506001600b5461160191906130da565b600b819055506116118484611e08565b6116d383600883600281111561162a57611629612aee565b5b8154811061163b5761163a612f7e565b5b90600052602060002001805461165090612d27565b80601f016020809104026020016040519081016040528092919081815260200182805461167c90612d27565b80156116c95780601f1061169e576101008083540402835291602001916116c9565b820191906000526020600020905b8154815290600101906020018083116116ac57829003601f168201915b5050505050611e26565b7fab79897476febbd649710b1bd1dc3e93a316d3dee65f65b022ab89a4b7e206b581856040516117049291906133d8565b60405180910390a1505050505050565b60008061172083610bea565b90508073ffffffffffffffffffffffffffffffffffffffff168473ffffffffffffffffffffffffffffffffffffffff161480611762575061176181856112ec565b5b806117a057508373ffffffffffffffffffffffffffffffffffffffff16611788846107b7565b73ffffffffffffffffffffffffffffffffffffffff16145b91505092915050565b8273ffffffffffffffffffffffffffffffffffffffff166117c982610bea565b73ffffffffffffffffffffffffffffffffffffffff161461181f576040517f08c379a000000000000000000000000000000000000000000000000000000000815260040161181690613473565b60405180910390fd5b600073ffffffffffffffffffffffffffffffffffffffff168273ffffffffffffffffffffffffffffffffffffffff16141561188f576040517f08c379a000000000000000000000000000000000000000000000000000000000815260040161188690613505565b60405180910390fd5b61189a838383611e9a565b6118a56000826114c1565b6001600360008573ffffffffffffffffffffffffffffffffffffffff1673ffffffffffffffffffffffffffffffffffffffff16815260200190815260200160002060008282546118f59190613525565b925050819055506001600360008473ffffffffffffffffffffffffffffffffffffffff1673ffffffffffffffffffffffffffffffffffffffff168152602001908152602001600020600082825461194c91906130da565b92505081905550816002600083815260200190815260200160002060006101000a81548173ffffffffffffffffffffffffffffffffffffffff021916908373ffffffffffffffffffffffffffffffffffffffff160217905550808273ffffffffffffffffffffffffffffffffffffffff168473ffffffffffffffffffffffffffffffffffffffff167fddf252ad1be2c89b69c2b068fc378daa952ba7f163c4a11628f55a4df523b3ef60405160405180910390a4611a0b838383611e9f565b505050565b611a186114b9565b73ffffffffffffffffffffffffffffffffffffffff16611a36610d9a565b73ffffffffffffffffffffffffffffffffffffffff1614611a8c576040517f08c379a0000000000000000000000000000000000000000000000000000000008152600401611a83906135a5565b60405180910390fd5b565b6000600760009054906101000a900473ffffffffffffffffffffffffffffffffffffffff16905081600760006101000a81548173ffffffffffffffffffffffffffffffffffffffff021916908373ffffffffffffffffffffffffffffffffffffffff1602179055508173ffffffffffffffffffffffffffffffffffffffff168173ffffffffffffffffffffffffffffffffffffffff167f8be0079c531659141344cd1fd0a4f28419497f9722a3daafe3b4186f6b6457e060405160405180910390a35050565b8173ffffffffffffffffffffffffffffffffffffffff168373ffffffffffffffffffffffffffffffffffffffff161415611bc3576040517f08c379a0000000000000000000000000000000000000000000000000000000008152600401611bba90613611565b60405180910390fd5b80600560008573ffffffffffffffffffffffffffffffffffffffff1673ffffffffffffffffffffffffffffffffffffffff16815260200190815260200160002060008473ffffffffffffffffffffffffffffffffffffffff1673ffffffffffffffffffffffffffffffffffffffff16815260200190815260200160002060006101000a81548160ff0219169083151502179055508173ffffffffffffffffffffffffffffffffffffffff168373ffffffffffffffffffffffffffffffffffffffff167f17307eab39ab6107e8899845ad3d59bd9653f200f220920489ca2b5937696c3183604051611cb4919061256d565b60405180910390a3505050565b611ccc8484846117a9565b611cd884848484611ea4565b611d17576040517f08c379a0000000000000000000000000000000000000000000000000000000008152600401611d0e906136a3565b60405180910390fd5b50505050565b606060405180602001604052806000815250905090565b6060611d3f8261146e565b6000611d49611d1d565b90506000815111611d695760405180602001604052806000815250611d94565b80611d738461203b565b604051602001611d849291906132c2565b6040516020818303038152906040525b915050919050565b60008073ffffffffffffffffffffffffffffffffffffffff166002600084815260200190815260200160002060009054906101000a900473ffffffffffffffffffffffffffffffffffffffff1673ffffffffffffffffffffffffffffffffffffffff1614159050919050565b611e2282826040518060200160405280600081525061219c565b5050565b611e2f82611d9c565b611e6e576040517f08c379a0000000000000000000000000000000000000000000000000000000008152600401611e6590613735565b60405180910390fd5b80600660008481526020019081526020016000209080519060200190611e95929190612416565b505050565b505050565b505050565b6000611ec58473ffffffffffffffffffffffffffffffffffffffff166121f7565b1561202e578373ffffffffffffffffffffffffffffffffffffffff1663150b7a02611eee6114b9565b8786866040518563ffffffff1660e01b8152600401611f1094939291906137aa565b602060405180830381600087803b158015611f2a57600080fd5b505af1925050508015611f5b57506040513d601f19601f82011682018060405250810190611f58919061380b565b60015b611fde573d8060008114611f8b576040519150601f19603f3d011682016040523d82523d6000602084013e611f90565b606091505b50600081511415611fd6576040517f08c379a0000000000000000000000000000000000000000000000000000000008152600401611fcd906136a3565b60405180910390fd5b805181602001fd5b63150b7a0260e01b7bffffffffffffffffffffffffffffffffffffffffffffffffffffffff1916817bffffffffffffffffffffffffffffffffffffffffffffffffffffffff191614915050612033565b600190505b949350505050565b60606000821415612083576040518060400160405280600181526020017f30000000000000000000000000000000000000000000000000000000000000008152509050612197565b600082905060005b600082146120b557808061209e90613130565b915050600a826120ae9190613838565b915061208b565b60008167ffffffffffffffff8111156120d1576120d061279d565b5b6040519080825280601f01601f1916602001820160405280156121035781602001600182028036833780820191505090505b5090505b600085146121905760018261211c9190613525565b9150600a8561212b91906133a7565b603061213791906130da565b60f81b81838151811061214d5761214c612f7e565b5b60200101907effffffffffffffffffffffffffffffffffffffffffffffffffffffffffffff1916908160001a905350600a856121899190613838565b9450612107565b8093505050505b919050565b6121a6838361221a565b6121b36000848484611ea4565b6121f2576040517f08c379a00000000000000000000000000000000000000000000000000000000081526004016121e9906136a3565b60405180910390fd5b505050565b6000808273ffffffffffffffffffffffffffffffffffffffff163b119050919050565b600073ffffffffffffffffffffffffffffffffffffffff168273ffffffffffffffffffffffffffffffffffffffff16141561228a576040517f08c379a0000000000000000000000000000000000000000000000000000000008152600401612281906138b5565b60405180910390fd5b61229381611d9c565b156122d3576040517f08c379a00000000000000000000000000000000000000000000000000000000081526004016122ca90613921565b60405180910390fd5b6122df60008383611e9a565b6001600360008473ffffffffffffffffffffffffffffffffffffffff1673ffffffffffffffffffffffffffffffffffffffff168152602001908152602001600020600082825461232f91906130da565b92505081905550816002600083815260200190815260200160002060006101000a81548173ffffffffffffffffffffffffffffffffffffffff021916908373ffffffffffffffffffffffffffffffffffffffff160217905550808273ffffffffffffffffffffffffffffffffffffffff16600073ffffffffffffffffffffffffffffffffffffffff167fddf252ad1be2c89b69c2b068fc378daa952ba7f163c4a11628f55a4df523b3ef60405160405180910390a46123f060008383611e9f565b5050565b6040518060600160405280600390602082028036833780820191505090505090565b82805461242290612d27565b90600052602060002090601f016020900481019282612444576000855561248b565b82601f1061245d57805160ff191683800117855561248b565b8280016001018555821561248b579182015b8281111561248a57825182559160200191906001019061246f565b5b509050612498919061249c565b5090565b5b808211156124b557600081600090555060010161249d565b5090565b6000604051905090565b600080fd5b600080fd5b60007fffffffff0000000000000000000000000000000000000000000000000000000082169050919050565b612502816124cd565b811461250d57600080fd5b50565b60008135905061251f816124f9565b92915050565b60006020828403121561253b5761253a6124c3565b5b600061254984828501612510565b91505092915050565b60008115159050919050565b61256781612552565b82525050565b6000602082019050612582600083018461255e565b92915050565b600081519050919050565b600082825260208201905092915050565b60005b838110156125c25780820151818401526020810190506125a7565b838111156125d1576000848401525b50505050565b6000601f19601f8301169050919050565b60006125f382612588565b6125fd8185612593565b935061260d8185602086016125a4565b612616816125d7565b840191505092915050565b6000602082019050818103600083015261263b81846125e8565b905092915050565b6000819050919050565b61265681612643565b811461266157600080fd5b50565b6000813590506126738161264d565b92915050565b60006020828403121561268f5761268e6124c3565b5b600061269d84828501612664565b91505092915050565b600073ffffffffffffffffffffffffffffffffffffffff82169050919050565b60006126d1826126a6565b9050919050565b6126e1816126c6565b82525050565b60006020820190506126fc60008301846126d8565b92915050565b61270b816126c6565b811461271657600080fd5b50565b60008135905061272881612702565b92915050565b60008060408385031215612745576127446124c3565b5b600061275385828601612719565b925050602061276485828601612664565b9150509250929050565b61277781612643565b82525050565b6000602082019050612792600083018461276e565b92915050565b600080fd5b7f4e487b7100000000000000000000000000000000000000000000000000000000600052604160045260246000fd5b6127d5826125d7565b810181811067ffffffffffffffff821117156127f4576127f361279d565b5b80604052505050565b60006128076124b9565b905061281382826127cc565b919050565b600067ffffffffffffffff8211156128335761283261279d565b5b602082029050602081019050919050565b600080fd5b600061285c61285784612818565b6127fd565b9050808382526020820190506020840283018581111561287f5761287e612844565b5b835b818110156128a857806128948882612664565b845260208401935050602081019050612881565b5050509392505050565b600082601f8301126128c7576128c6612798565b5b81356128d7848260208601612849565b91505092915050565b600080604083850312156128f7576128f66124c3565b5b600061290585828601612664565b925050602083013567ffffffffffffffff811115612926576129256124c8565b5b612932858286016128b2565b9150509250929050565b600080600060608486031215612955576129546124c3565b5b600061296386828701612719565b935050602061297486828701612719565b925050604061298586828701612664565b9150509250925092565b600060039050919050565b600081905092915050565b6000819050919050565b6129b881612643565b82525050565b60006129ca83836129af565b60208301905092915050565b6000602082019050919050565b6129ec8161298f565b6129f6818461299a565b9250612a01826129a5565b8060005b83811015612a32578151612a1987826129be565b9650612a24836129d6565b925050600181019050612a05565b505050505050565b6000606082019050612a4f60008301846129e3565b92915050565b600060208284031215612a6b57612a6a6124c3565b5b6000612a7984828501612719565b91505092915050565b612a8b81612552565b8114612a9657600080fd5b50565b600081359050612aa881612a82565b92915050565b60008060408385031215612ac557612ac46124c3565b5b6000612ad385828601612719565b9250506020612ae485828601612a99565b9150509250929050565b7f4e487b7100000000000000000000000000000000000000000000000000000000600052602160045260246000fd5b60038110612b2e57612b2d612aee565b5b50565b6000819050612b3f82612b1d565b919050565b6000612b4f82612b31565b9050919050565b612b5f81612b44565b82525050565b6000602082019050612b7a6000830184612b56565b92915050565b600080fd5b600067ffffffffffffffff821115612ba057612b9f61279d565b5b612ba9826125d7565b9050602081019050919050565b82818337600083830152505050565b6000612bd8612bd384612b85565b6127fd565b905082815260208101848484011115612bf457612bf3612b80565b5b612bff848285612bb6565b509392505050565b600082601f830112612c1c57612c1b612798565b5b8135612c2c848260208601612bc5565b91505092915050565b60008060008060808587031215612c4f57612c4e6124c3565b5b6000612c5d87828801612719565b9450506020612c6e87828801612719565b9350506040612c7f87828801612664565b925050606085013567ffffffffffffffff811115612ca057612c9f6124c8565b5b612cac87828801612c07565b91505092959194509250565b60008060408385031215612ccf57612cce6124c3565b5b6000612cdd85828601612719565b9250506020612cee85828601612719565b9150509250929050565b7f4e487b7100000000000000000000000000000000000000000000000000000000600052602260045260246000fd5b60006002820490506001821680612d3f57607f821691505b60208210811415612d5357612d52612cf8565b5b50919050565b7f4552433732313a20617070726f76616c20746f2063757272656e74206f776e6560008201527f7200000000000000000000000000000000000000000000000000000000000000602082015250565b6000612db5602183612593565b9150612dc082612d59565b604082019050919050565b60006020820190508181036000830152612de481612da8565b9050919050565b7f4552433732313a20617070726f76652063616c6c6572206973206e6f7420746f60008201527f6b656e206f776e6572206e6f7220617070726f76656420666f7220616c6c0000602082015250565b6000612e47603e83612593565b9150612e5282612deb565b604082019050919050565b60006020820190508181036000830152612e7681612e3a565b9050919050565b6000604082019050612e9260008301856126d8565b612e9f60208301846126d8565b9392505050565b7f4552433732313a2063616c6c6572206973206e6f7420746f6b656e206f776e6560008201527f72206e6f7220617070726f766564000000000000000000000000000000000000602082015250565b6000612f02602e83612593565b9150612f0d82612ea6565b604082019050919050565b60006020820190508181036000830152612f3181612ef5565b9050919050565b600081905092915050565b50565b6000612f53600083612f38565b9150612f5e82612f43565b600082019050919050565b6000612f7482612f46565b9150819050919050565b7f4e487b7100000000000000000000000000000000000000000000000000000000600052603260045260246000fd5b7f4552433732313a20696e76616c696420746f6b656e2049440000000000000000600082015250565b6000612fe3601883612593565b9150612fee82612fad565b602082019050919050565b6000602082019050818103600083015261301281612fd6565b9050919050565b7f4552433732313a2061646472657373207a65726f206973206e6f74206120766160008201527f6c6964206f776e65720000000000000000000000000000000000000000000000602082015250565b6000613075602983612593565b915061308082613019565b604082019050919050565b600060208201905081810360008301526130a481613068565b9050919050565b7f4e487b7100000000000000000000000000000000000000000000000000000000600052601160045260246000fd5b60006130e582612643565b91506130f083612643565b9250827fffffffffffffffffffffffffffffffffffffffffffffffffffffffffffffffff03821115613125576131246130ab565b5b828201905092915050565b600061313b82612643565b91507fffffffffffffffffffffffffffffffffffffffffffffffffffffffffffffffff82141561316e5761316d6130ab565b5b600182019050919050565b6000819050919050565b61318c81613179565b82525050565b600067ffffffffffffffff82169050919050565b6131af81613192565b82525050565b600061ffff82169050919050565b6131cc816131b5565b82525050565b600063ffffffff82169050919050565b6131eb816131d2565b82525050565b600060a0820190506132066000830188613183565b61321360208301876131a6565b61322060408301866131c3565b61322d60608301856131e2565b61323a60808301846131e2565b9695505050505050565b6000815190506132538161264d565b92915050565b60006020828403121561326f5761326e6124c3565b5b600061327d84828501613244565b91505092915050565b600081905092915050565b600061329c82612588565b6132a68185613286565b93506132b68185602086016125a4565b80840191505092915050565b60006132ce8285613291565b91506132da8284613291565b91508190509392505050565b7f4f776e61626c653a206e6577206f776e657220697320746865207a65726f206160008201527f6464726573730000000000000000000000000000000000000000000000000000602082015250565b6000613342602683612593565b915061334d826132e6565b604082019050919050565b6000602082019050818103600083015261337181613335565b9050919050565b7f4e487b7100000000000000000000000000000000000000000000000000000000600052601260045260246000fd5b60006133b282612643565b91506133bd83612643565b9250826133cd576133cc613378565b5b828206905092915050565b60006040820190506133ed6000830185612b56565b6133fa60208301846126d8565b9392505050565b7f4552433732313a207472616e736665722066726f6d20696e636f72726563742060008201527f6f776e6572000000000000000000000000000000000000000000000000000000602082015250565b600061345d602583612593565b915061346882613401565b604082019050919050565b6000602082019050818103600083015261348c81613450565b9050919050565b7f4552433732313a207472616e7366657220746f20746865207a65726f2061646460008201527f7265737300000000000000000000000000000000000000000000000000000000602082015250565b60006134ef602483612593565b91506134fa82613493565b604082019050919050565b6000602082019050818103600083015261351e816134e2565b9050919050565b600061353082612643565b915061353b83612643565b92508282101561354e5761354d6130ab565b5b828203905092915050565b7f4f776e61626c653a2063616c6c6572206973206e6f7420746865206f776e6572600082015250565b600061358f602083612593565b915061359a82613559565b602082019050919050565b600060208201905081810360008301526135be81613582565b9050919050565b7f4552433732313a20617070726f766520746f2063616c6c657200000000000000600082015250565b60006135fb601983612593565b9150613606826135c5565b602082019050919050565b6000602082019050818103600083015261362a816135ee565b9050919050565b7f4552433732313a207472616e7366657220746f206e6f6e20455243373231526560008201527f63656976657220696d706c656d656e7465720000000000000000000000000000602082015250565b600061368d603283612593565b915061369882613631565b604082019050919050565b600060208201905081810360008301526136bc81613680565b9050919050565b7f45524337323155524953746f726167653a2055524920736574206f66206e6f6e60008201527f6578697374656e7420746f6b656e000000000000000000000000000000000000602082015250565b600061371f602e83612593565b915061372a826136c3565b604082019050919050565b6000602082019050818103600083015261374e81613712565b9050919050565b600081519050919050565b600082825260208201905092915050565b600061377c82613755565b6137868185613760565b93506137968185602086016125a4565b61379f816125d7565b840191505092915050565b60006080820190506137bf60008301876126d8565b6137cc60208301866126d8565b6137d9604083018561276e565b81810360608301526137eb8184613771565b905095945050505050565b600081519050613805816124f9565b92915050565b600060208284031215613821576138206124c3565b5b600061382f848285016137f6565b91505092915050565b600061384382612643565b915061384e83612643565b92508261385e5761385d613378565b5b828204905092915050565b7f4552433732313a206d696e7420746f20746865207a65726f2061646472657373600082015250565b600061389f602083612593565b91506138aa82613869565b602082019050919050565b600060208201905081810360008301526138ce81613892565b9050919050565b7f4552433732313a20746f6b656e20616c7265616479206d696e74656400000000600082015250565b600061390b601c83612593565b9150613916826138d5565b602082019050919050565b6000602082019050818103600083015261393a816138fe565b905091905056fea264697066735822122071b25c21fc368d40a268d4289ff31c26fb43398a576ce425a8742c8848bfcb6f64736f6c63430008080033",
  "devdoc": {
    "kind": "dev",
    "methods": {
      "approve(address,uint256)": {
        "details": "See {IERC721-approve}."
      },
      "balanceOf(address)": {
        "details": "See {IERC721-balanceOf}."
      },
      "getApproved(uint256)": {
        "details": "See {IERC721-getApproved}."
      },
      "isApprovedForAll(address,address)": {
        "details": "See {IERC721-isApprovedForAll}."
      },
      "name()": {
        "details": "See {IERC721Metadata-name}."
      },
      "owner()": {
        "details": "Returns the address of the current owner."
      },
      "ownerOf(uint256)": {
        "details": "See {IERC721-ownerOf}."
      },
      "renounceOwnership()": {
        "details": "Leaves the contract without owner. It will not be possible to call `onlyOwner` functions anymore. Can only be called by the current owner. NOTE: Renouncing ownership will leave the contract without an owner, thereby removing any functionality that is only available to the owner."
      },
      "safeTransferFrom(address,address,uint256)": {
        "details": "See {IERC721-safeTransferFrom}."
      },
      "safeTransferFrom(address,address,uint256,bytes)": {
        "details": "See {IERC721-safeTransferFrom}."
      },
      "setApprovalForAll(address,bool)": {
        "details": "See {IERC721-setApprovalForAll}."
      },
      "supportsInterface(bytes4)": {
        "details": "See {IERC165-supportsInterface}."
      },
      "symbol()": {
        "details": "See {IERC721Metadata-symbol}."
      },
      "tokenURI(uint256)": {
        "details": "See {IERC721Metadata-tokenURI}."
      },
      "transferFrom(address,address,uint256)": {
        "details": "See {IERC721-transferFrom}."
      },
      "transferOwnership(address)": {
        "details": "Transfers ownership of the contract to a new account (`newOwner`). Can only be called by the current owner."
      }
    },
    "version": 1
  },
  "userdoc": {
    "kind": "user",
    "methods": {},
    "version": 1
  },
  "storageLayout": {
    "storage": [
      {
        "astId": 1296,
        "contract": "contracts/RandomIpfsNft.sol:RandomIpfsNft",
        "label": "_name",
        "offset": 0,
        "slot": "0",
        "type": "t_string_storage"
      },
      {
        "astId": 1298,
        "contract": "contracts/RandomIpfsNft.sol:RandomIpfsNft",
        "label": "_symbol",
        "offset": 0,
        "slot": "1",
        "type": "t_string_storage"
      },
      {
        "astId": 1302,
        "contract": "contracts/RandomIpfsNft.sol:RandomIpfsNft",
        "label": "_owners",
        "offset": 0,
        "slot": "2",
        "type": "t_mapping(t_uint256,t_address)"
      },
      {
        "astId": 1306,
        "contract": "contracts/RandomIpfsNft.sol:RandomIpfsNft",
        "label": "_balances",
        "offset": 0,
        "slot": "3",
        "type": "t_mapping(t_address,t_uint256)"
      },
      {
        "astId": 1310,
        "contract": "contracts/RandomIpfsNft.sol:RandomIpfsNft",
        "label": "_tokenApprovals",
        "offset": 0,
        "slot": "4",
        "type": "t_mapping(t_uint256,t_address)"
      },
      {
        "astId": 1316,
        "contract": "contracts/RandomIpfsNft.sol:RandomIpfsNft",
        "label": "_operatorApprovals",
        "offset": 0,
        "slot": "5",
        "type": "t_mapping(t_address,t_mapping(t_address,t_bool))"
      },
      {
        "astId": 2284,
        "contract": "contracts/RandomIpfsNft.sol:RandomIpfsNft",
        "label": "_tokenURIs",
        "offset": 0,
        "slot": "6",
        "type": "t_mapping(t_uint256,t_string_storage)"
      },
      {
        "astId": 1165,
        "contract": "contracts/RandomIpfsNft.sol:RandomIpfsNft",
        "label": "_owner",
        "offset": 0,
        "slot": "7",
        "type": "t_address"
      },
      {
        "astId": 3645,
        "contract": "contracts/RandomIpfsNft.sol:RandomIpfsNft",
        "label": "i_subscriptionId",
        "offset": 20,
        "slot": "7",
        "type": "t_uint64"
      },
      {
        "astId": 3658,
        "contract": "contracts/RandomIpfsNft.sol:RandomIpfsNft",
        "label": "s_goblinTokenUris",
        "offset": 0,
        "slot": "8",
        "type": "t_array(t_string_storage)dyn_storage"
      },
      {
        "astId": 3662,
        "contract": "contracts/RandomIpfsNft.sol:RandomIpfsNft",
        "label": "s_initialized",
        "offset": 0,
        "slot": "9",
        "type": "t_bool"
      },
      {
        "astId": 3666,
        "contract": "contracts/RandomIpfsNft.sol:RandomIpfsNft",
        "label": "s_requestIdToSender",
        "offset": 0,
        "slot": "10",
        "type": "t_mapping(t_uint256,t_address)"
      },
      {
        "astId": 3668,
        "contract": "contracts/RandomIpfsNft.sol:RandomIpfsNft",
        "label": "s_tokenCounter",
        "offset": 0,
        "slot": "11",
        "type": "t_uint256"
      }
    ],
    "types": {
      "t_address": {
        "encoding": "inplace",
        "label": "address",
        "numberOfBytes": "20"
      },
      "t_array(t_string_storage)dyn_storage": {
        "base": "t_string_storage",
        "encoding": "dynamic_array",
        "label": "string[]",
        "numberOfBytes": "32"
      },
      "t_bool": {
        "encoding": "inplace",
        "label": "bool",
        "numberOfBytes": "1"
      },
      "t_mapping(t_address,t_bool)": {
        "encoding": "mapping",
        "key": "t_address",
        "label": "mapping(address => bool)",
        "numberOfBytes": "32",
        "value": "t_bool"
      },
      "t_mapping(t_address,t_mapping(t_address,t_bool))": {
        "encoding": "mapping",
        "key": "t_address",
        "label": "mapping(address => mapping(address => bool))",
        "numberOfBytes": "32",
        "value": "t_mapping(t_address,t_bool)"
      },
      "t_mapping(t_address,t_uint256)": {
        "encoding": "mapping",
        "key": "t_address",
        "label": "mapping(address => uint256)",
        "numberOfBytes": "32",
        "value": "t_uint256"
      },
      "t_mapping(t_uint256,t_address)": {
        "encoding": "mapping",
        "key": "t_uint256",
        "label": "mapping(uint256 => address)",
        "numberOfBytes": "32",
        "value": "t_address"
      },
      "t_mapping(t_uint256,t_string_storage)": {
        "encoding": "mapping",
        "key": "t_uint256",
        "label": "mapping(uint256 => string)",
        "numberOfBytes": "32",
        "value": "t_string_storage"
      },
      "t_string_storage": {
        "encoding": "bytes",
        "label": "string",
        "numberOfBytes": "32"
      },
      "t_uint256": {
        "encoding": "inplace",
        "label": "uint256",
        "numberOfBytes": "32"
      },
      "t_uint64": {
        "encoding": "inplace",
        "label": "uint64",
        "numberOfBytes": "8"
      }
    }
  }
}